{
  "address": "0x5FbDB2315678afecb367f032d93F642f64180aa3",
  "abi": [
    {
      "inputs": [
        {
          "internalType": "uint256",
          "name": "joinFee",
          "type": "uint256"
        },
        {
          "internalType": "uint256",
          "name": "interval",
          "type": "uint256"
        }
      ],
      "stateMutability": "nonpayable",
      "type": "constructor"
    },
    {
      "inputs": [],
      "name": "NotEnoughEthEntered",
      "type": "error"
    },
    {
      "inputs": [],
      "name": "Sacco__NotPermitted",
      "type": "error"
    },
    {
      "inputs": [],
      "name": "Sacco__NotpaydayTime",
      "type": "error"
    },
    {
      "inputs": [],
      "name": "Sacco__PayoutFailed",
      "type": "error"
    },
    {
      "inputs": [],
      "name": "Sacco__UpkeepNotNeeded",
      "type": "error"
    },
    {
      "anonymous": false,
      "inputs": [
        {
          "indexed": true,
          "internalType": "address",
          "name": "user",
          "type": "address"
        },
        {
          "indexed": true,
          "internalType": "uint256",
          "name": "amount",
          "type": "uint256"
        }
      ],
      "name": "MemberPaidOut",
      "type": "event"
    },
    {
      "anonymous": false,
      "inputs": [
        {
          "indexed": true,
          "internalType": "address",
          "name": "player",
          "type": "address"
        }
      ],
      "name": "NewPlayerEntered",
      "type": "event"
    },
    {
      "inputs": [
        {
          "internalType": "bytes",
          "name": "",
          "type": "bytes"
        }
      ],
      "name": "checkUpkeep",
      "outputs": [
        {
          "internalType": "bool",
          "name": "upkeepNeeded",
          "type": "bool"
        },
        {
          "internalType": "bytes",
          "name": "",
          "type": "bytes"
        }
      ],
      "stateMutability": "view",
      "type": "function"
    },
    {
      "inputs": [],
      "name": "clearSacco",
      "outputs": [],
      "stateMutability": "nonpayable",
      "type": "function"
    },
    {
      "inputs": [],
      "name": "getAdmin",
      "outputs": [
        {
          "internalType": "address",
          "name": "",
          "type": "address"
        }
      ],
      "stateMutability": "view",
      "type": "function"
    },
    {
      "inputs": [],
      "name": "getBalance",
      "outputs": [
        {
          "internalType": "uint256",
          "name": "",
          "type": "uint256"
        }
      ],
      "stateMutability": "view",
      "type": "function"
    },
    {
      "inputs": [],
      "name": "getInterval",
      "outputs": [
        {
          "internalType": "uint256",
          "name": "",
          "type": "uint256"
        }
      ],
      "stateMutability": "view",
      "type": "function"
    },
    {
      "inputs": [],
      "name": "getJoinFee",
      "outputs": [
        {
          "internalType": "uint256",
          "name": "",
          "type": "uint256"
        }
      ],
      "stateMutability": "view",
      "type": "function"
    },
    {
      "inputs": [],
      "name": "getLastTimestamp",
      "outputs": [
        {
          "internalType": "uint256",
          "name": "",
          "type": "uint256"
        }
      ],
      "stateMutability": "view",
      "type": "function"
    },
    {
      "inputs": [
        {
          "internalType": "address",
          "name": "memberAddress",
          "type": "address"
        }
      ],
      "name": "getMemberBalance",
      "outputs": [
        {
          "internalType": "uint256",
          "name": "",
          "type": "uint256"
        }
      ],
      "stateMutability": "view",
      "type": "function"
    },
    {
      "inputs": [],
      "name": "getMemberCount",
      "outputs": [
        {
          "internalType": "uint256",
          "name": "",
          "type": "uint256"
        }
      ],
      "stateMutability": "view",
      "type": "function"
    },
    {
      "inputs": [
        {
          "internalType": "uint256",
          "name": "index_",
          "type": "uint256"
        }
      ],
      "name": "getMemberIndex",
      "outputs": [
        {
          "internalType": "address",
          "name": "",
          "type": "address"
        }
      ],
      "stateMutability": "view",
      "type": "function"
    },
    {
      "inputs": [
        {
          "internalType": "address",
          "name": "memberAddress",
          "type": "address"
        }
      ],
      "name": "getMemberNumber",
      "outputs": [
        {
          "internalType": "uint256",
          "name": "",
          "type": "uint256"
        }
      ],
      "stateMutability": "view",
      "type": "function"
    },
    {
      "inputs": [],
      "name": "getMembersList",
      "outputs": [
        {
          "components": [
            {
              "internalType": "uint256",
              "name": "memberNumber",
              "type": "uint256"
            },
            {
              "internalType": "address",
              "name": "memberAddress",
              "type": "address"
            },
            {
              "internalType": "uint256",
              "name": "mamberBalance",
              "type": "uint256"
            },
            {
              "internalType": "bool",
              "name": "getsPaidNext",
              "type": "bool"
            }
          ],
          "internalType": "struct Sacco.Member[]",
          "name": "",
          "type": "tuple[]"
        }
      ],
      "stateMutability": "view",
      "type": "function"
    },
    {
      "inputs": [],
      "name": "getNextPaid",
      "outputs": [
        {
          "internalType": "address",
          "name": "",
          "type": "address"
        }
      ],
      "stateMutability": "view",
      "type": "function"
    },
    {
      "inputs": [],
      "name": "getNumberGettingPaid",
      "outputs": [
        {
          "internalType": "uint256",
          "name": "",
          "type": "uint256"
        }
      ],
      "stateMutability": "view",
      "type": "function"
    },
    {
      "inputs": [],
      "name": "join",
      "outputs": [],
      "stateMutability": "payable",
      "type": "function"
    },
    {
      "inputs": [],
      "name": "payoutMembers",
      "outputs": [],
      "stateMutability": "nonpayable",
      "type": "function"
    },
    {
      "inputs": [
        {
          "internalType": "bytes",
          "name": "",
          "type": "bytes"
        }
      ],
      "name": "performUpkeep",
      "outputs": [],
      "stateMutability": "nonpayable",
      "type": "function"
    }
  ],
  "transactionHash": "0xe4784f32df687d9b21e0d537c7bd7758f3900036699fd37e9d24e08f2c13f3ab",
  "args": [
    "20000000000000000",
    30
  ],
  "numDeployments": 1,
  "solcInputHash": "730c7eae9469974b0cc67952133431dd",
  "bytecode": "0x60c06040523480156200001157600080fd5b50604051620019de380380620019de8339818101604052810190620000379190620000e6565b8160808181525050336000806101000a81548173ffffffffffffffffffffffffffffffffffffffff021916908373ffffffffffffffffffffffffffffffffffffffff1602179055506000600181905550426007819055508060a08181525050600160068190555050506200012d565b600080fd5b6000819050919050565b620000c081620000ab565b8114620000cc57600080fd5b50565b600081519050620000e081620000b5565b92915050565b600080604083850312156200010057620000ff620000a6565b5b60006200011085828601620000cf565b92505060206200012385828601620000cf565b9150509250929050565b60805160a05161187d620001616000396000818161076001526108150152600081816106da0152610bf8015261187d6000f3fe6080604052600436106100fe5760003560e01c806394d1ba8c11610095578063bb01f00e11610064578063bb01f00e146102f5578063ca55753a14610320578063ed0c27201461035d578063f49a2b2114610388578063fbf114391461039f576100fe565b806394d1ba8c1461027e578063997072f714610295578063a147d932146102c0578063b688a363146102eb576100fe565b80636313ec92116100d15780636313ec92146101ad5780636e04ff0d146101ea5780636e9960c31461022857806391ad27b414610253576100fe565b806312065fe014610103578063378997701461012e5780634585e33b146101595780635cc8edeb14610182575b600080fd5b34801561010f57600080fd5b506101186103dc565b604051610125919061115d565b60405180910390f35b34801561013a57600080fd5b506101436103e6565b604051610150919061115d565b60405180910390f35b34801561016557600080fd5b50610180600480360381019061017b91906111f1565b6103f0565b005b34801561018e57600080fd5b506101976106d6565b6040516101a4919061115d565b60405180910390f35b3480156101b957600080fd5b506101d460048036038101906101cf919061126a565b6106fe565b6040516101e191906112d8565b60405180910390f35b3480156101f657600080fd5b50610211600480360381019061020c9190611434565b610746565b60405161021f929190611517565b60405180910390f35b34801561023457600080fd5b5061023d6107e8565b60405161024a91906112d8565b60405180910390f35b34801561025f57600080fd5b50610268610811565b604051610275919061115d565b60405180910390f35b34801561028a57600080fd5b50610293610839565b005b3480156102a157600080fd5b506102aa610b08565b6040516102b7919061115d565b60405180910390f35b3480156102cc57600080fd5b506102d5610b12565b6040516102e29190611678565b60405180910390f35b6102f3610bf6565b005b34801561030157600080fd5b5061030a610ee9565b604051610317919061115d565b60405180910390f35b34801561032c57600080fd5b50610347600480360381019061034291906116c6565b610ef3565b604051610354919061115d565b60405180910390f35b34801561036957600080fd5b50610372610f3c565b60405161037f91906112d8565b60405180910390f35b34801561039457600080fd5b5061039d610f84565b005b3480156103ab57600080fd5b506103c660048036038101906103c191906116c6565b611037565b6040516103d3919061115d565b60405180910390f35b6000600154905090565b6000600754905090565b60006104306040518060400160405280600181526020017f2000000000000000000000000000000000000000000000000000000000000000815250610746565b5090508061046a576040517f36ec0bd700000000000000000000000000000000000000000000000000000000815260040160405180910390fd5b4260078190555060025460065411156104865760006006819055505b600047905060005b6003805490508110156106b7576000600382815481106104b1576104b06116f3565b5b9060005260206000200160009054906101000a900473ffffffffffffffffffffffffffffffffffffffff16905060006003600654815481106104f6576104f56116f3565b5b9060005260206000200160009054906101000a900473ffffffffffffffffffffffffffffffffffffffff1690508073ffffffffffffffffffffffffffffffffffffffff168273ffffffffffffffffffffffffffffffffffffffff16036106a25760008173ffffffffffffffffffffffffffffffffffffffff164760405161057c90611753565b60006040518083038185875af1925050503d80600081146105b9576040519150601f19603f3d011682016040523d82523d6000602084013e6105be565b606091505b50509050806105f9576040517fbb8cc58b00000000000000000000000000000000000000000000000000000000815260040160405180910390fd5b84600460008473ffffffffffffffffffffffffffffffffffffffff1673ffffffffffffffffffffffffffffffffffffffff16815260200190815260200160002060008282546106489190611797565b92505081905550600047905080600181905550858473ffffffffffffffffffffffffffffffffffffffff167f3e4045fd8ffb23648eb0cb47abf1cd0da79b361202f29f1259f2033c7e48367a60405160405180910390a350505b505080806106af906117cb565b91505061048e565b50600660008154809291906106cb906117cb565b919050555050505050565b60007f0000000000000000000000000000000000000000000000000000000000000000905090565b600060038281548110610714576107136116f3565b5b9060005260206000200160009054906101000a900473ffffffffffffffffffffffffffffffffffffffff169050919050565b6000606060008060025411905060008060015411905060007f00000000000000000000000000000000000000000000000000000000000000006007544261078d9190611813565b11905080801561079a5750815b80156107a35750825b9450846040518060400160405280600381526020017f307830000000000000000000000000000000000000000000000000000000000081525094509450505050915091565b60008060009054906101000a900473ffffffffffffffffffffffffffffffffffffffff16905090565b60007f0000000000000000000000000000000000000000000000000000000000000000905090565b60008060025411905060008060015411905060008180156108575750825b905080610890576040517f7d7eb1ee00000000000000000000000000000000000000000000000000000000815260040160405180910390fd5b4260078190555060025460065411156108ac5760016006819055505b600047905060005b600380549050811015610ae9576000600382815481106108d7576108d66116f3565b5b9060005260206000200160009054906101000a900473ffffffffffffffffffffffffffffffffffffffff1690506000600360016006546109179190611813565b81548110610928576109276116f3565b5b9060005260206000200160009054906101000a900473ffffffffffffffffffffffffffffffffffffffff1690508073ffffffffffffffffffffffffffffffffffffffff168273ffffffffffffffffffffffffffffffffffffffff1603610ad45760008173ffffffffffffffffffffffffffffffffffffffff16476040516109ae90611753565b60006040518083038185875af1925050503d80600081146109eb576040519150601f19603f3d011682016040523d82523d6000602084013e6109f0565b606091505b5050905080610a2b576040517fbb8cc58b00000000000000000000000000000000000000000000000000000000815260040160405180910390fd5b84600460008473ffffffffffffffffffffffffffffffffffffffff1673ffffffffffffffffffffffffffffffffffffffff1681526020019081526020016000206000828254610a7a9190611797565b92505081905550600047905080600181905550858473ffffffffffffffffffffffffffffffffffffffff167f3e4045fd8ffb23648eb0cb47abf1cd0da79b361202f29f1259f2033c7e48367a60405160405180910390a350505b50508080610ae1906117cb565b9150506108b4565b5060066000815480929190610afd906117cb565b919050555050505050565b6000600254905090565b60606008805480602002602001604051908101604052809291908181526020016000905b82821015610bed5783829060005260206000209060040201604051806080016040529081600082015481526020016001820160009054906101000a900473ffffffffffffffffffffffffffffffffffffffff1673ffffffffffffffffffffffffffffffffffffffff1673ffffffffffffffffffffffffffffffffffffffff168152602001600282015481526020016003820160009054906101000a900460ff16151515158152505081526020019060010190610b36565b50505050905090565b7f0000000000000000000000000000000000000000000000000000000000000000341015610c50576040517f3569c8ba00000000000000000000000000000000000000000000000000000000815260040160405180910390fd5b60026000815480929190610c63906117cb565b91905055506003339080600181540180825580915050600190039060005260206000200160009091909190916101000a81548173ffffffffffffffffffffffffffffffffffffffff021916908373ffffffffffffffffffffffffffffffffffffffff1602179055506000600460003373ffffffffffffffffffffffffffffffffffffffff1673ffffffffffffffffffffffffffffffffffffffff1681526020019081526020016000206000828254610d1b9190611797565b92505081905550600254600560003373ffffffffffffffffffffffffffffffffffffffff1673ffffffffffffffffffffffffffffffffffffffff168152602001908152602001600020819055503460016000828254610d7a9190611797565b925050819055506008604051806080016040528060025481526020013373ffffffffffffffffffffffffffffffffffffffff168152602001600460003373ffffffffffffffffffffffffffffffffffffffff1673ffffffffffffffffffffffffffffffffffffffff1681526020019081526020016000205481526020016000151581525090806001815401808255809150506001900390600052602060002090600402016000909190919091506000820151816000015560208201518160010160006101000a81548173ffffffffffffffffffffffffffffffffffffffff021916908373ffffffffffffffffffffffffffffffffffffffff1602179055506040820151816002015560608201518160030160006101000a81548160ff02191690831515021790555050503373ffffffffffffffffffffffffffffffffffffffff167fb99735857dcdc72249cabb2a63977805de8a83268ff5f84700cd9da7017130c560405160405180910390a2565b6000600654905090565b6000600460008373ffffffffffffffffffffffffffffffffffffffff1673ffffffffffffffffffffffffffffffffffffffff168152602001908152602001600020549050919050565b6000600360065481548110610f5457610f536116f3565b5b9060005260206000200160009054906101000a900473ffffffffffffffffffffffffffffffffffffffff16905090565b60008054906101000a900473ffffffffffffffffffffffffffffffffffffffff1673ffffffffffffffffffffffffffffffffffffffff163373ffffffffffffffffffffffffffffffffffffffff1614611009576040517ffe2f327400000000000000000000000000000000000000000000000000000000815260040160405180910390fd5b60006002819055506003600061101f9190611080565b6008600061102d91906110a1565b6001600681905550565b6000600560008373ffffffffffffffffffffffffffffffffffffffff1673ffffffffffffffffffffffffffffffffffffffff168152602001908152602001600020549050919050565b508054600082559060005260206000209081019061109e91906110c5565b50565b50805460008255600402906000526020600020908101906110c291906110e2565b50565b5b808211156110de5760008160009055506001016110c6565b5090565b5b80821115611140576000808201600090556001820160006101000a81549073ffffffffffffffffffffffffffffffffffffffff021916905560028201600090556003820160006101000a81549060ff0219169055506004016110e3565b5090565b6000819050919050565b61115781611144565b82525050565b6000602082019050611172600083018461114e565b92915050565b6000604051905090565b600080fd5b600080fd5b600080fd5b600080fd5b600080fd5b60008083601f8401126111b1576111b061118c565b5b8235905067ffffffffffffffff8111156111ce576111cd611191565b5b6020830191508360018202830111156111ea576111e9611196565b5b9250929050565b6000806020838503121561120857611207611182565b5b600083013567ffffffffffffffff81111561122657611225611187565b5b6112328582860161119b565b92509250509250929050565b61124781611144565b811461125257600080fd5b50565b6000813590506112648161123e565b92915050565b6000602082840312156112805761127f611182565b5b600061128e84828501611255565b91505092915050565b600073ffffffffffffffffffffffffffffffffffffffff82169050919050565b60006112c282611297565b9050919050565b6112d2816112b7565b82525050565b60006020820190506112ed60008301846112c9565b92915050565b600080fd5b6000601f19601f8301169050919050565b7f4e487b7100000000000000000000000000000000000000000000000000000000600052604160045260246000fd5b611341826112f8565b810181811067ffffffffffffffff821117156113605761135f611309565b5b80604052505050565b6000611373611178565b905061137f8282611338565b919050565b600067ffffffffffffffff82111561139f5761139e611309565b5b6113a8826112f8565b9050602081019050919050565b82818337600083830152505050565b60006113d76113d284611384565b611369565b9050828152602081018484840111156113f3576113f26112f3565b5b6113fe8482856113b5565b509392505050565b600082601f83011261141b5761141a61118c565b5b813561142b8482602086016113c4565b91505092915050565b60006020828403121561144a57611449611182565b5b600082013567ffffffffffffffff81111561146857611467611187565b5b61147484828501611406565b91505092915050565b60008115159050919050565b6114928161147d565b82525050565b600081519050919050565b600082825260208201905092915050565b60005b838110156114d25780820151818401526020810190506114b7565b60008484015250505050565b60006114e982611498565b6114f381856114a3565b93506115038185602086016114b4565b61150c816112f8565b840191505092915050565b600060408201905061152c6000830185611489565b818103602083015261153e81846114de565b90509392505050565b600081519050919050565b600082825260208201905092915050565b6000819050602082019050919050565b61157c81611144565b82525050565b61158b816112b7565b82525050565b61159a8161147d565b82525050565b6080820160008201516115b66000850182611573565b5060208201516115c96020850182611582565b5060408201516115dc6040850182611573565b5060608201516115ef6060850182611591565b50505050565b600061160183836115a0565b60808301905092915050565b6000602082019050919050565b600061162582611547565b61162f8185611552565b935061163a83611563565b8060005b8381101561166b57815161165288826115f5565b975061165d8361160d565b92505060018101905061163e565b5085935050505092915050565b60006020820190508181036000830152611692818461161a565b905092915050565b6116a3816112b7565b81146116ae57600080fd5b50565b6000813590506116c08161169a565b92915050565b6000602082840312156116dc576116db611182565b5b60006116ea848285016116b1565b91505092915050565b7f4e487b7100000000000000000000000000000000000000000000000000000000600052603260045260246000fd5b600081905092915050565b50565b600061173d600083611722565b91506117488261172d565b600082019050919050565b600061175e82611730565b9150819050919050565b7f4e487b7100000000000000000000000000000000000000000000000000000000600052601160045260246000fd5b60006117a282611144565b91506117ad83611144565b92508282019050808211156117c5576117c4611768565b5b92915050565b60006117d682611144565b91507fffffffffffffffffffffffffffffffffffffffffffffffffffffffffffffffff820361180857611807611768565b5b600182019050919050565b600061181e82611144565b915061182983611144565b925082820390508181111561184157611840611768565b5b9291505056fea2646970667358221220002f5b7b29cd4a69e3470a2f91bb0708d6a8947b85ec2f615772b4d9740b12c564736f6c63430008110033",
  "devdoc": {
    "kind": "dev",
    "methods": {},
    "version": 1
  },
  "userdoc": {
    "kind": "user",
    "methods": {},
    "version": 1
  },
  "storageLayout": {
    "storage": [
      {
        "astId": 38,
        "contract": "contracts/Sacco.sol:Sacco",
        "label": "i_admin",
        "offset": 0,
        "slot": "0",
        "type": "t_address"
      },
      {
        "astId": 40,
        "contract": "contracts/Sacco.sol:Sacco",
        "label": "s_balances",
        "offset": 0,
        "slot": "1",
        "type": "t_uint256"
      },
      {
        "astId": 42,
        "contract": "contracts/Sacco.sol:Sacco",
        "label": "s_membersCount",
        "offset": 0,
        "slot": "2",
        "type": "t_uint256"
      },
      {
        "astId": 47,
        "contract": "contracts/Sacco.sol:Sacco",
        "label": "s_members",
        "offset": 0,
        "slot": "3",
        "type": "t_array(t_address_payable)dyn_storage"
      },
      {
        "astId": 51,
        "contract": "contracts/Sacco.sol:Sacco",
        "label": "s_memberBalance",
        "offset": 0,
        "slot": "4",
        "type": "t_mapping(t_address,t_uint256)"
      },
      {
        "astId": 55,
        "contract": "contracts/Sacco.sol:Sacco",
        "label": "s_memberNumber",
        "offset": 0,
        "slot": "5",
        "type": "t_mapping(t_address,t_uint256)"
      },
      {
        "astId": 57,
        "contract": "contracts/Sacco.sol:Sacco",
        "label": "s_num_gettingPaid",
        "offset": 0,
        "slot": "6",
        "type": "t_uint256"
      },
      {
        "astId": 59,
        "contract": "contracts/Sacco.sol:Sacco",
        "label": "s_lastTimeStamp",
        "offset": 0,
        "slot": "7",
        "type": "t_uint256"
      },
      {
        "astId": 82,
        "contract": "contracts/Sacco.sol:Sacco",
        "label": "s_memberList",
        "offset": 0,
        "slot": "8",
        "type": "t_array(t_struct(Member)78_storage)dyn_storage"
      }
    ],
    "types": {
      "t_address": {
        "encoding": "inplace",
        "label": "address",
        "numberOfBytes": "20"
      },
      "t_address_payable": {
        "encoding": "inplace",
        "label": "address payable",
        "numberOfBytes": "20"
      },
      "t_array(t_address_payable)dyn_storage": {
        "base": "t_address_payable",
        "encoding": "dynamic_array",
        "label": "address payable[]",
        "numberOfBytes": "32"
      },
      "t_array(t_struct(Member)78_storage)dyn_storage": {
        "base": "t_struct(Member)78_storage",
        "encoding": "dynamic_array",
        "label": "struct Sacco.Member[]",
        "numberOfBytes": "32"
      },
      "t_bool": {
        "encoding": "inplace",
        "label": "bool",
        "numberOfBytes": "1"
      },
      "t_mapping(t_address,t_uint256)": {
        "encoding": "mapping",
        "key": "t_address",
        "label": "mapping(address => uint256)",
        "numberOfBytes": "32",
        "value": "t_uint256"
      },
      "t_struct(Member)78_storage": {
        "encoding": "inplace",
        "label": "struct Sacco.Member",
        "members": [
          {
            "astId": 71,
            "contract": "contracts/Sacco.sol:Sacco",
            "label": "memberNumber",
            "offset": 0,
            "slot": "0",
            "type": "t_uint256"
          },
          {
            "astId": 73,
            "contract": "contracts/Sacco.sol:Sacco",
            "label": "memberAddress",
            "offset": 0,
            "slot": "1",
            "type": "t_address"
          },
          {
            "astId": 75,
            "contract": "contracts/Sacco.sol:Sacco",
            "label": "mamberBalance",
            "offset": 0,
            "slot": "2",
            "type": "t_uint256"
          },
          {
            "astId": 77,
            "contract": "contracts/Sacco.sol:Sacco",
            "label": "getsPaidNext",
            "offset": 0,
            "slot": "3",
            "type": "t_bool"
          }
        ],
        "numberOfBytes": "128"
      },
      "t_uint256": {
        "encoding": "inplace",
        "label": "uint256",
        "numberOfBytes": "32"
      }
    }
  }
}