{
  "address": "0x5FbDB2315678afecb367f032d93F642f64180aa3",
  "abi": [
    {
      "inputs": [
        {
          "internalType": "uint256",
          "name": "joinFee",
          "type": "uint256"
        },
        {
          "internalType": "uint256",
          "name": "interval",
          "type": "uint256"
        }
      ],
      "stateMutability": "nonpayable",
      "type": "constructor"
    },
    {
      "inputs": [],
      "name": "NotEnoughEthEntered",
      "type": "error"
    },
    {
      "inputs": [],
      "name": "Sacco__NotpaydayTime",
      "type": "error"
    },
    {
      "inputs": [],
      "name": "Sacco__PayoutFailed",
      "type": "error"
    },
    {
      "anonymous": false,
      "inputs": [
        {
          "indexed": true,
          "internalType": "address",
          "name": "player",
          "type": "address"
        }
      ],
      "name": "NewPlayerEntered",
      "type": "event"
    },
    {
      "anonymous": false,
      "inputs": [
        {
          "indexed": true,
          "internalType": "address",
          "name": "user",
          "type": "address"
        },
        {
          "indexed": true,
          "internalType": "uint256",
          "name": "amount",
          "type": "uint256"
        }
      ],
      "name": "Payout",
      "type": "event"
    },
    {
      "inputs": [
        {
          "internalType": "bytes",
          "name": "",
          "type": "bytes"
        }
      ],
      "name": "checkUpkeep",
      "outputs": [
        {
          "internalType": "bool",
          "name": "upkeepNeeded",
          "type": "bool"
        },
        {
          "internalType": "bytes",
          "name": "",
          "type": "bytes"
        }
      ],
      "stateMutability": "view",
      "type": "function"
    },
    {
      "inputs": [],
      "name": "getAdmin",
      "outputs": [
        {
          "internalType": "address",
          "name": "",
          "type": "address"
        }
      ],
      "stateMutability": "view",
      "type": "function"
    },
    {
      "inputs": [],
      "name": "getBalance",
      "outputs": [
        {
          "internalType": "uint256",
          "name": "",
          "type": "uint256"
        }
      ],
      "stateMutability": "view",
      "type": "function"
    },
    {
      "inputs": [],
      "name": "getInterval",
      "outputs": [
        {
          "internalType": "uint256",
          "name": "",
          "type": "uint256"
        }
      ],
      "stateMutability": "view",
      "type": "function"
    },
    {
      "inputs": [],
      "name": "getJoinFee",
      "outputs": [
        {
          "internalType": "uint256",
          "name": "",
          "type": "uint256"
        }
      ],
      "stateMutability": "view",
      "type": "function"
    },
    {
      "inputs": [
        {
          "internalType": "address",
          "name": "memberAddress",
          "type": "address"
        }
      ],
      "name": "getMemberBalance",
      "outputs": [
        {
          "internalType": "uint256",
          "name": "",
          "type": "uint256"
        }
      ],
      "stateMutability": "view",
      "type": "function"
    },
    {
      "inputs": [],
      "name": "getMemberCount",
      "outputs": [
        {
          "internalType": "uint256",
          "name": "",
          "type": "uint256"
        }
      ],
      "stateMutability": "view",
      "type": "function"
    },
    {
      "inputs": [
        {
          "internalType": "uint256",
          "name": "index_",
          "type": "uint256"
        }
      ],
      "name": "getMemberIndex",
      "outputs": [
        {
          "internalType": "address",
          "name": "",
          "type": "address"
        }
      ],
      "stateMutability": "view",
      "type": "function"
    },
    {
      "inputs": [
        {
          "internalType": "address",
          "name": "memberAddress",
          "type": "address"
        }
      ],
      "name": "getMemberNumber",
      "outputs": [
        {
          "internalType": "uint256",
          "name": "",
          "type": "uint256"
        }
      ],
      "stateMutability": "view",
      "type": "function"
    },
    {
      "inputs": [],
      "name": "getNextPaid",
      "outputs": [
        {
          "internalType": "address",
          "name": "",
          "type": "address"
        }
      ],
      "stateMutability": "view",
      "type": "function"
    },
    {
      "inputs": [],
      "name": "getNumberGettingPaid",
      "outputs": [
        {
          "internalType": "uint256",
          "name": "",
          "type": "uint256"
        }
      ],
      "stateMutability": "view",
      "type": "function"
    },
    {
      "inputs": [],
      "name": "join",
      "outputs": [],
      "stateMutability": "payable",
      "type": "function"
    },
    {
      "inputs": [
        {
          "internalType": "bytes",
          "name": "",
          "type": "bytes"
        }
      ],
      "name": "performUpkeep",
      "outputs": [],
      "stateMutability": "nonpayable",
      "type": "function"
    }
  ],
  "transactionHash": "0xb8f37e00cffe8d2aa3c75913790ac6ffb5571c31208b69e76e29b0232205b498",
  "args": [
    "20000000000000000",
    30
  ],
  "numDeployments": 1,
  "solcInputHash": "4ab4912477118c2b8c0143fc0958c462",
  "bytecode": "0x60c06040523480156200001157600080fd5b50604051620010c7380380620010c78339818101604052810190620000379190620000e6565b8160808181525050336000806101000a81548173ffffffffffffffffffffffffffffffffffffffff021916908373ffffffffffffffffffffffffffffffffffffffff1602179055506000600181905550426007819055508060a08181525050600060068190555050506200012d565b600080fd5b6000819050919050565b620000c081620000ab565b8114620000cc57600080fd5b50565b600081519050620000e081620000b5565b92915050565b600080604083850312156200010057620000ff620000a6565b5b60006200011085828601620000cf565b92505060206200012385828601620000cf565b9150509250929050565b60805160a051610f6662000161600039600081816105e9015261069e01526000818161056301526106ce0152610f666000f3fe6080604052600436106100c25760003560e01c806391ad27b41161007f578063bb01f00e11610059578063bb01f00e1461024c578063ca55753a14610277578063ed0c2720146102b4578063fbf11439146102df576100c2565b806391ad27b4146101ec578063997072f714610217578063b688a36314610242576100c2565b806312065fe0146100c75780634585e33b146100f25780635cc8edeb1461011b5780636313ec92146101465780636e04ff0d146101835780636e9960c3146101c1575b600080fd5b3480156100d357600080fd5b506100dc61031c565b6040516100e99190610999565b60405180910390f35b3480156100fe57600080fd5b5061011960048036038101906101149190610a2d565b610326565b005b34801561012757600080fd5b5061013061055f565b60405161013d9190610999565b60405180910390f35b34801561015257600080fd5b5061016d60048036038101906101689190610aa6565b610587565b60405161017a9190610b14565b60405180910390f35b34801561018f57600080fd5b506101aa60048036038101906101a59190610c70565b6105cf565b6040516101b8929190610d53565b60405180910390f35b3480156101cd57600080fd5b506101d6610671565b6040516101e39190610b14565b60405180910390f35b3480156101f857600080fd5b5061020161069a565b60405161020e9190610999565b60405180910390f35b34801561022357600080fd5b5061022c6106c2565b6040516102399190610999565b60405180910390f35b61024a6106cc565b005b34801561025857600080fd5b5061026161089c565b60405161026e9190610999565b60405180910390f35b34801561028357600080fd5b5061029e60048036038101906102999190610daf565b6108a6565b6040516102ab9190610999565b60405180910390f35b3480156102c057600080fd5b506102c96108ef565b6040516102d69190610b14565b60405180910390f35b3480156102eb57600080fd5b5061030660048036038101906103019190610daf565b610937565b6040516103139190610999565b60405180910390f35b6000600154905090565b60006103666040518060400160405280600181526020017f20000000000000000000000000000000000000000000000000000000000000008152506105cf565b509050806103a0576040517f36ec0bd700000000000000000000000000000000000000000000000000000000815260040160405180910390fd5b4260078190555060025460065411156103bc5760006006819055505b60005b600380549050811015610541576000600382815481106103e2576103e1610ddc565b5b9060005260206000200160009054906101000a900473ffffffffffffffffffffffffffffffffffffffff169050600060036006548154811061042757610426610ddc565b5b9060005260206000200160009054906101000a900473ffffffffffffffffffffffffffffffffffffffff1690508073ffffffffffffffffffffffffffffffffffffffff168273ffffffffffffffffffffffffffffffffffffffff160361052c5760008173ffffffffffffffffffffffffffffffffffffffff16476040516104ad90610e3c565b60006040518083038185875af1925050503d80600081146104ea576040519150601f19603f3d011682016040523d82523d6000602084013e6104ef565b606091505b505090508061052a576040517fbb8cc58b00000000000000000000000000000000000000000000000000000000815260040160405180910390fd5b505b5050808061053990610e80565b9150506103bf565b506006600081548092919061055590610e80565b9190505550505050565b60007f0000000000000000000000000000000000000000000000000000000000000000905090565b60006003828154811061059d5761059c610ddc565b5b9060005260206000200160009054906101000a900473ffffffffffffffffffffffffffffffffffffffff169050919050565b6000606060008060025411905060008060015411905060007f0000000000000000000000000000000000000000000000000000000000000000600754426106169190610ec8565b1190508080156106235750815b801561062c5750825b9450846040518060400160405280600381526020017f307830000000000000000000000000000000000000000000000000000000000081525094509450505050915091565b60008060009054906101000a900473ffffffffffffffffffffffffffffffffffffffff16905090565b60007f0000000000000000000000000000000000000000000000000000000000000000905090565b6000600254905090565b7f0000000000000000000000000000000000000000000000000000000000000000341015610726576040517f3569c8ba00000000000000000000000000000000000000000000000000000000815260040160405180910390fd5b6002600081548092919061073990610e80565b91905055506003339080600181540180825580915050600190039060005260206000200160009091909190916101000a81548173ffffffffffffffffffffffffffffffffffffffff021916908373ffffffffffffffffffffffffffffffffffffffff1602179055506000600460003373ffffffffffffffffffffffffffffffffffffffff1673ffffffffffffffffffffffffffffffffffffffff16815260200190815260200160002060008282546107f19190610efc565b92505081905550600254600560003373ffffffffffffffffffffffffffffffffffffffff1673ffffffffffffffffffffffffffffffffffffffff1681526020019081526020016000208190555034600160008282546108509190610efc565b925050819055503373ffffffffffffffffffffffffffffffffffffffff167fb99735857dcdc72249cabb2a63977805de8a83268ff5f84700cd9da7017130c560405160405180910390a2565b6000600654905090565b6000600460008373ffffffffffffffffffffffffffffffffffffffff1673ffffffffffffffffffffffffffffffffffffffff168152602001908152602001600020549050919050565b600060036006548154811061090757610906610ddc565b5b9060005260206000200160009054906101000a900473ffffffffffffffffffffffffffffffffffffffff16905090565b6000600560008373ffffffffffffffffffffffffffffffffffffffff1673ffffffffffffffffffffffffffffffffffffffff168152602001908152602001600020549050919050565b6000819050919050565b61099381610980565b82525050565b60006020820190506109ae600083018461098a565b92915050565b6000604051905090565b600080fd5b600080fd5b600080fd5b600080fd5b600080fd5b60008083601f8401126109ed576109ec6109c8565b5b8235905067ffffffffffffffff811115610a0a57610a096109cd565b5b602083019150836001820283011115610a2657610a256109d2565b5b9250929050565b60008060208385031215610a4457610a436109be565b5b600083013567ffffffffffffffff811115610a6257610a616109c3565b5b610a6e858286016109d7565b92509250509250929050565b610a8381610980565b8114610a8e57600080fd5b50565b600081359050610aa081610a7a565b92915050565b600060208284031215610abc57610abb6109be565b5b6000610aca84828501610a91565b91505092915050565b600073ffffffffffffffffffffffffffffffffffffffff82169050919050565b6000610afe82610ad3565b9050919050565b610b0e81610af3565b82525050565b6000602082019050610b296000830184610b05565b92915050565b600080fd5b6000601f19601f8301169050919050565b7f4e487b7100000000000000000000000000000000000000000000000000000000600052604160045260246000fd5b610b7d82610b34565b810181811067ffffffffffffffff82111715610b9c57610b9b610b45565b5b80604052505050565b6000610baf6109b4565b9050610bbb8282610b74565b919050565b600067ffffffffffffffff821115610bdb57610bda610b45565b5b610be482610b34565b9050602081019050919050565b82818337600083830152505050565b6000610c13610c0e84610bc0565b610ba5565b905082815260208101848484011115610c2f57610c2e610b2f565b5b610c3a848285610bf1565b509392505050565b600082601f830112610c5757610c566109c8565b5b8135610c67848260208601610c00565b91505092915050565b600060208284031215610c8657610c856109be565b5b600082013567ffffffffffffffff811115610ca457610ca36109c3565b5b610cb084828501610c42565b91505092915050565b60008115159050919050565b610cce81610cb9565b82525050565b600081519050919050565b600082825260208201905092915050565b60005b83811015610d0e578082015181840152602081019050610cf3565b60008484015250505050565b6000610d2582610cd4565b610d2f8185610cdf565b9350610d3f818560208601610cf0565b610d4881610b34565b840191505092915050565b6000604082019050610d686000830185610cc5565b8181036020830152610d7a8184610d1a565b90509392505050565b610d8c81610af3565b8114610d9757600080fd5b50565b600081359050610da981610d83565b92915050565b600060208284031215610dc557610dc46109be565b5b6000610dd384828501610d9a565b91505092915050565b7f4e487b7100000000000000000000000000000000000000000000000000000000600052603260045260246000fd5b600081905092915050565b50565b6000610e26600083610e0b565b9150610e3182610e16565b600082019050919050565b6000610e4782610e19565b9150819050919050565b7f4e487b7100000000000000000000000000000000000000000000000000000000600052601160045260246000fd5b6000610e8b82610980565b91507fffffffffffffffffffffffffffffffffffffffffffffffffffffffffffffffff8203610ebd57610ebc610e51565b5b600182019050919050565b6000610ed382610980565b9150610ede83610980565b9250828203905081811115610ef657610ef5610e51565b5b92915050565b6000610f0782610980565b9150610f1283610980565b9250828201905080821115610f2a57610f29610e51565b5b9291505056fea26469706673582212203cca96bdf2d3b3689560e9e17465217118aa77630cbe124a515314a2a10850d664736f6c63430008110033",
  "devdoc": {
    "kind": "dev",
    "methods": {},
    "version": 1
  },
  "userdoc": {
    "kind": "user",
    "methods": {},
    "version": 1
  },
  "storageLayout": {
    "storage": [
      {
        "astId": 34,
        "contract": "contracts/Sacco.sol:Sacco",
        "label": "i_admin",
        "offset": 0,
        "slot": "0",
        "type": "t_address"
      },
      {
        "astId": 36,
        "contract": "contracts/Sacco.sol:Sacco",
        "label": "s_balances",
        "offset": 0,
        "slot": "1",
        "type": "t_uint256"
      },
      {
        "astId": 38,
        "contract": "contracts/Sacco.sol:Sacco",
        "label": "s_membersCount",
        "offset": 0,
        "slot": "2",
        "type": "t_uint256"
      },
      {
        "astId": 43,
        "contract": "contracts/Sacco.sol:Sacco",
        "label": "s_members",
        "offset": 0,
        "slot": "3",
        "type": "t_array(t_address_payable)dyn_storage"
      },
      {
        "astId": 47,
        "contract": "contracts/Sacco.sol:Sacco",
        "label": "s_memberBalance",
        "offset": 0,
        "slot": "4",
        "type": "t_mapping(t_address,t_uint256)"
      },
      {
        "astId": 51,
        "contract": "contracts/Sacco.sol:Sacco",
        "label": "s_memberNumber",
        "offset": 0,
        "slot": "5",
        "type": "t_mapping(t_address,t_uint256)"
      },
      {
        "astId": 53,
        "contract": "contracts/Sacco.sol:Sacco",
        "label": "s_num_gettingPaid",
        "offset": 0,
        "slot": "6",
        "type": "t_uint256"
      },
      {
        "astId": 55,
        "contract": "contracts/Sacco.sol:Sacco",
        "label": "s_lastTimeStamp",
        "offset": 0,
        "slot": "7",
        "type": "t_uint256"
      }
    ],
    "types": {
      "t_address": {
        "encoding": "inplace",
        "label": "address",
        "numberOfBytes": "20"
      },
      "t_address_payable": {
        "encoding": "inplace",
        "label": "address payable",
        "numberOfBytes": "20"
      },
      "t_array(t_address_payable)dyn_storage": {
        "base": "t_address_payable",
        "encoding": "dynamic_array",
        "label": "address payable[]",
        "numberOfBytes": "32"
      },
      "t_mapping(t_address,t_uint256)": {
        "encoding": "mapping",
        "key": "t_address",
        "label": "mapping(address => uint256)",
        "numberOfBytes": "32",
        "value": "t_uint256"
      },
      "t_uint256": {
        "encoding": "inplace",
        "label": "uint256",
        "numberOfBytes": "32"
      }
    }
  }
}