{
  "_format": "hh-sol-artifact-1",
  "contractName": "Sacco",
  "sourceName": "contracts/Sacco.sol",
  "abi": [
    {
      "inputs": [
        {
          "internalType": "uint256",
          "name": "joinFee",
          "type": "uint256"
        },
        {
          "internalType": "uint256",
          "name": "interval",
          "type": "uint256"
        },
        {
          "internalType": "address",
          "name": "keepersRegistryAddress",
          "type": "address"
        }
      ],
      "stateMutability": "nonpayable",
      "type": "constructor"
    },
    {
      "inputs": [],
      "name": "NotEnoughEthEntered",
      "type": "error"
    },
    {
      "inputs": [],
      "name": "Sacco__AlreadyContributed",
      "type": "error"
    },
    {
      "inputs": [],
      "name": "Sacco__NotPermitted",
      "type": "error"
    },
    {
      "inputs": [],
      "name": "Sacco__NotpaydayTime",
      "type": "error"
    },
    {
      "inputs": [],
      "name": "Sacco__PayoutFailed",
      "type": "error"
    },
    {
      "inputs": [],
      "name": "Sacco__UpkeepNotNeeded",
      "type": "error"
    },
    {
      "inputs": [],
      "name": "Sacco__WrongFeeAmount",
      "type": "error"
    },
    {
      "anonymous": false,
      "inputs": [
        {
          "indexed": true,
          "internalType": "address",
          "name": "member",
          "type": "address"
        },
        {
          "indexed": true,
          "internalType": "uint256",
          "name": "amount",
          "type": "uint256"
        }
      ],
      "name": "Deposit",
      "type": "event"
    },
    {
      "anonymous": false,
      "inputs": [
        {
          "indexed": true,
          "internalType": "address",
          "name": "user",
          "type": "address"
        },
        {
          "indexed": true,
          "internalType": "uint256",
          "name": "amount",
          "type": "uint256"
        }
      ],
      "name": "MemberPaidOut",
      "type": "event"
    },
    {
      "anonymous": false,
      "inputs": [
        {
          "indexed": true,
          "internalType": "address",
          "name": "player",
          "type": "address"
        }
      ],
      "name": "NewPlayerEntered",
      "type": "event"
    },
    {
      "stateMutability": "payable",
      "type": "fallback"
    },
    {
      "inputs": [
        {
          "internalType": "bytes",
          "name": "",
          "type": "bytes"
        }
      ],
      "name": "checkUpkeep",
      "outputs": [
        {
          "internalType": "bool",
          "name": "upkeepNeeded",
          "type": "bool"
        },
        {
          "internalType": "bytes",
          "name": "",
          "type": "bytes"
        }
      ],
      "stateMutability": "view",
      "type": "function"
    },
    {
      "inputs": [],
      "name": "clearSacco",
      "outputs": [],
      "stateMutability": "nonpayable",
      "type": "function"
    },
    {
      "inputs": [],
      "name": "getAdmin",
      "outputs": [
        {
          "internalType": "address",
          "name": "",
          "type": "address"
        }
      ],
      "stateMutability": "view",
      "type": "function"
    },
    {
      "inputs": [],
      "name": "getBalance",
      "outputs": [
        {
          "internalType": "uint256",
          "name": "",
          "type": "uint256"
        }
      ],
      "stateMutability": "view",
      "type": "function"
    },
    {
      "inputs": [],
      "name": "getInterval",
      "outputs": [
        {
          "internalType": "uint256",
          "name": "",
          "type": "uint256"
        }
      ],
      "stateMutability": "view",
      "type": "function"
    },
    {
      "inputs": [],
      "name": "getJoinFee",
      "outputs": [
        {
          "internalType": "uint256",
          "name": "",
          "type": "uint256"
        }
      ],
      "stateMutability": "view",
      "type": "function"
    },
    {
      "inputs": [],
      "name": "getLastTimestamp",
      "outputs": [
        {
          "internalType": "uint256",
          "name": "",
          "type": "uint256"
        }
      ],
      "stateMutability": "view",
      "type": "function"
    },
    {
      "inputs": [
        {
          "internalType": "address",
          "name": "memberAddress",
          "type": "address"
        }
      ],
      "name": "getMemberBalance",
      "outputs": [
        {
          "internalType": "uint256",
          "name": "",
          "type": "uint256"
        }
      ],
      "stateMutability": "view",
      "type": "function"
    },
    {
      "inputs": [],
      "name": "getMemberCount",
      "outputs": [
        {
          "internalType": "uint256",
          "name": "",
          "type": "uint256"
        }
      ],
      "stateMutability": "view",
      "type": "function"
    },
    {
      "inputs": [
        {
          "internalType": "uint256",
          "name": "index_",
          "type": "uint256"
        }
      ],
      "name": "getMemberIndex",
      "outputs": [
        {
          "internalType": "address",
          "name": "",
          "type": "address"
        }
      ],
      "stateMutability": "view",
      "type": "function"
    },
    {
      "inputs": [
        {
          "internalType": "address",
          "name": "memberAddress",
          "type": "address"
        }
      ],
      "name": "getMemberNumber",
      "outputs": [
        {
          "internalType": "uint256",
          "name": "",
          "type": "uint256"
        }
      ],
      "stateMutability": "view",
      "type": "function"
    },
    {
      "inputs": [
        {
          "internalType": "address",
          "name": "memberAddress_",
          "type": "address"
        }
      ],
      "name": "getMembersDetails",
      "outputs": [
        {
          "components": [
            {
              "internalType": "uint256",
              "name": "memberNumber",
              "type": "uint256"
            },
            {
              "internalType": "address",
              "name": "memberAddress",
              "type": "address"
            },
            {
              "internalType": "uint256",
              "name": "memberBalance",
              "type": "uint256"
            },
            {
              "internalType": "bool",
              "name": "getsPaidNext",
              "type": "bool"
            },
            {
              "internalType": "bool",
              "name": "hasContributed",
              "type": "bool"
            }
          ],
          "internalType": "struct Sacco.Member",
          "name": "",
          "type": "tuple"
        }
      ],
      "stateMutability": "view",
      "type": "function"
    },
    {
      "inputs": [],
      "name": "getMembersList",
      "outputs": [
        {
          "components": [
            {
              "internalType": "uint256",
              "name": "memberNumber",
              "type": "uint256"
            },
            {
              "internalType": "address",
              "name": "memberAddress",
              "type": "address"
            },
            {
              "internalType": "uint256",
              "name": "memberBalance",
              "type": "uint256"
            },
            {
              "internalType": "bool",
              "name": "getsPaidNext",
              "type": "bool"
            },
            {
              "internalType": "bool",
              "name": "hasContributed",
              "type": "bool"
            }
          ],
          "internalType": "struct Sacco.Member[]",
          "name": "",
          "type": "tuple[]"
        }
      ],
      "stateMutability": "view",
      "type": "function"
    },
    {
      "inputs": [],
      "name": "getNextPaid",
      "outputs": [
        {
          "internalType": "address",
          "name": "",
          "type": "address"
        }
      ],
      "stateMutability": "view",
      "type": "function"
    },
    {
      "inputs": [],
      "name": "getNumberGettingPaid",
      "outputs": [
        {
          "internalType": "uint256",
          "name": "",
          "type": "uint256"
        }
      ],
      "stateMutability": "view",
      "type": "function"
    },
    {
      "inputs": [],
      "name": "join",
      "outputs": [],
      "stateMutability": "payable",
      "type": "function"
    },
    {
      "inputs": [],
      "name": "payoutMembers",
      "outputs": [],
      "stateMutability": "nonpayable",
      "type": "function"
    },
    {
      "inputs": [
        {
          "internalType": "bytes",
          "name": "",
          "type": "bytes"
        }
      ],
      "name": "performUpkeep",
      "outputs": [],
      "stateMutability": "nonpayable",
      "type": "function"
    },
    {
      "stateMutability": "payable",
      "type": "receive"
    }
  ],
  "bytecode": "0x60e06040523480156200001157600080fd5b506040516200212c3803806200212c833981810160405281019062000037919062000180565b8260808181525050336000806101000a81548173ffffffffffffffffffffffffffffffffffffffff021916908373ffffffffffffffffffffffffffffffffffffffff1602179055506000600181905550426007819055508160a0818152505060016006819055508073ffffffffffffffffffffffffffffffffffffffff1660c08173ffffffffffffffffffffffffffffffffffffffff1681525050505050620001dc565b600080fd5b6000819050919050565b620000f581620000e0565b81146200010157600080fd5b50565b6000815190506200011581620000ea565b92915050565b600073ffffffffffffffffffffffffffffffffffffffff82169050919050565b600062000148826200011b565b9050919050565b6200015a816200013b565b81146200016657600080fd5b50565b6000815190506200017a816200014f565b92915050565b6000806000606084860312156200019c576200019b620000db565b5b6000620001ac8682870162000104565b9350506020620001bf8682870162000104565b9250506040620001d28682870162000169565b9150509250925092565b60805160a05160c051611f0e6200021e6000396000505060008181610a460152610afb015260008181610114015281816109c0015261100c0152611f0e6000f3fe60806040526004361061010d5760003560e01c806394d1ba8c11610095578063bb01f00e11610064578063bb01f00e146104e2578063ca55753a1461050d578063ed0c27201461054a578063f49a2b2114610575578063fbf114391461058c576102b1565b806394d1ba8c1461046b578063997072f714610482578063a147d932146104ad578063b688a363146104d8576102b1565b80635cc8edeb116100dc5780635cc8edeb1461036f5780636313ec921461039a5780636e04ff0d146103d75780636e9960c31461041557806391ad27b414610440576102b1565b806312065fe0146102b35780631a9f1011146102de578063378997701461031b5780634585e33b14610346576102b1565b366102b1577f0000000000000000000000000000000000000000000000000000000000000000341461016b576040517f7116cadf00000000000000000000000000000000000000000000000000000000815260040160405180910390fd5b6000600960003373ffffffffffffffffffffffffffffffffffffffff1673ffffffffffffffffffffffffffffffffffffffff16815260200190815260200160002060030160019054906101000a900460ff16905080156101f7576040517faab0347900000000000000000000000000000000000000000000000000000000815260040160405180910390fd5b6001600960003373ffffffffffffffffffffffffffffffffffffffff1673ffffffffffffffffffffffffffffffffffffffff16815260200190815260200160002060030160016101000a81548160ff02191690831515021790555034600160008282546102649190611778565b92505081905550343373ffffffffffffffffffffffffffffffffffffffff167fe1fffcc4923d04b559f4d29a8bfc6cda04eb5b0d3c460751c2402c5c5cc9109c60405160405180910390a3005b005b3480156102bf57600080fd5b506102c86105c9565b6040516102d591906117bb565b60405180910390f35b3480156102ea57600080fd5b5061030560048036038101906103009190611848565b6105d3565b6040516103129190611916565b60405180910390f35b34801561032757600080fd5b506103306106cc565b60405161033d91906117bb565b60405180910390f35b34801561035257600080fd5b5061036d60048036038101906103689190611996565b6106d6565b005b34801561037b57600080fd5b506103846109bc565b60405161039191906117bb565b60405180910390f35b3480156103a657600080fd5b506103c160048036038101906103bc9190611a0f565b6109e4565b6040516103ce9190611a4b565b60405180910390f35b3480156103e357600080fd5b506103fe60048036038101906103f99190611ba7565b610a2c565b60405161040c929190611c7e565b60405180910390f35b34801561042157600080fd5b5061042a610ace565b6040516104379190611a4b565b60405180910390f35b34801561044c57600080fd5b50610455610af7565b60405161046291906117bb565b60405180910390f35b34801561047757600080fd5b50610480610b1f565b005b34801561048e57600080fd5b50610497610f01565b6040516104a491906117bb565b60405180910390f35b3480156104b957600080fd5b506104c2610f0b565b6040516104cf9190611dc5565b60405180910390f35b6104e061100a565b005b3480156104ee57600080fd5b506104f7611487565b60405161050491906117bb565b60405180910390f35b34801561051957600080fd5b50610534600480360381019061052f9190611848565b611491565b60405161054191906117bb565b60405180910390f35b34801561055657600080fd5b5061055f6114da565b60405161056c9190611a4b565b60405180910390f35b34801561058157600080fd5b5061058a611522565b005b34801561059857600080fd5b506105b360048036038101906105ae9190611848565b6115d5565b6040516105c091906117bb565b60405180910390f35b6000600154905090565b6105db61161e565b600960008373ffffffffffffffffffffffffffffffffffffffff1673ffffffffffffffffffffffffffffffffffffffff1681526020019081526020016000206040518060a0016040529081600082015481526020016001820160009054906101000a900473ffffffffffffffffffffffffffffffffffffffff1673ffffffffffffffffffffffffffffffffffffffff1673ffffffffffffffffffffffffffffffffffffffff168152602001600282015481526020016003820160009054906101000a900460ff161515151581526020016003820160019054906101000a900460ff1615151515815250509050919050565b6000600754905090565b60006107166040518060400160405280600181526020017f2000000000000000000000000000000000000000000000000000000000000000815250610a2c565b50905080610750576040517f36ec0bd700000000000000000000000000000000000000000000000000000000815260040160405180910390fd5b42600781905550600254600654111561076c5760006006819055505b600047905060005b60038054905081101561099d5760006003828154811061079757610796611de7565b5b9060005260206000200160009054906101000a900473ffffffffffffffffffffffffffffffffffffffff16905060006003600654815481106107dc576107db611de7565b5b9060005260206000200160009054906101000a900473ffffffffffffffffffffffffffffffffffffffff1690508073ffffffffffffffffffffffffffffffffffffffff168273ffffffffffffffffffffffffffffffffffffffff16036109885760008173ffffffffffffffffffffffffffffffffffffffff164760405161086290611e47565b60006040518083038185875af1925050503d806000811461089f576040519150601f19603f3d011682016040523d82523d6000602084013e6108a4565b606091505b50509050806108df576040517fbb8cc58b00000000000000000000000000000000000000000000000000000000815260040160405180910390fd5b84600460008473ffffffffffffffffffffffffffffffffffffffff1673ffffffffffffffffffffffffffffffffffffffff168152602001908152602001600020600082825461092e9190611778565b92505081905550600047905080600181905550858473ffffffffffffffffffffffffffffffffffffffff167f3e4045fd8ffb23648eb0cb47abf1cd0da79b361202f29f1259f2033c7e48367a60405160405180910390a350505b5050808061099590611e5c565b915050610774565b50600660008154809291906109b190611e5c565b919050555050505050565b60007f0000000000000000000000000000000000000000000000000000000000000000905090565b6000600382815481106109fa576109f9611de7565b5b9060005260206000200160009054906101000a900473ffffffffffffffffffffffffffffffffffffffff169050919050565b6000606060008060025411905060008060015411905060007f000000000000000000000000000000000000000000000000000000000000000060075442610a739190611ea4565b119050808015610a805750815b8015610a895750825b9450846040518060400160405280600381526020017f307830000000000000000000000000000000000000000000000000000000000081525094509450505050915091565b60008060009054906101000a900473ffffffffffffffffffffffffffffffffffffffff16905090565b60007f0000000000000000000000000000000000000000000000000000000000000000905090565b6000806002541190506000806001541190506000818015610b3d5750825b905080610b76576040517f7d7eb1ee00000000000000000000000000000000000000000000000000000000815260040160405180910390fd5b426007819055506002546006541115610b925760016006819055505b600047905060005b600380549050811015610ecd57600060038281548110610bbd57610bbc611de7565b5b9060005260206000200160009054906101000a900473ffffffffffffffffffffffffffffffffffffffff169050600060036001600654610bfd9190611ea4565b81548110610c0e57610c0d611de7565b5b9060005260206000200160009054906101000a900473ffffffffffffffffffffffffffffffffffffffff1690508073ffffffffffffffffffffffffffffffffffffffff168273ffffffffffffffffffffffffffffffffffffffff1603610e5d576000600960008473ffffffffffffffffffffffffffffffffffffffff1673ffffffffffffffffffffffffffffffffffffffff16815260200190815260200160002060030160019054906101000a900460ff1690508015610e5b5760008273ffffffffffffffffffffffffffffffffffffffff1647604051610cee90611e47565b60006040518083038185875af1925050503d8060008114610d2b576040519150601f19603f3d011682016040523d82523d6000602084013e610d30565b606091505b5050905080610d6b576040517fbb8cc58b00000000000000000000000000000000000000000000000000000000815260040160405180910390fd5b85600460008573ffffffffffffffffffffffffffffffffffffffff1673ffffffffffffffffffffffffffffffffffffffff1681526020019081526020016000206000828254610dba9190611778565b9250508190555085600960003373ffffffffffffffffffffffffffffffffffffffff1673ffffffffffffffffffffffffffffffffffffffff16815260200190815260200160002060020181905550600047905080600181905550868573ffffffffffffffffffffffffffffffffffffffff167f3e4045fd8ffb23648eb0cb47abf1cd0da79b361202f29f1259f2033c7e48367a60405160405180910390a350505b505b6000600960008473ffffffffffffffffffffffffffffffffffffffff1673ffffffffffffffffffffffffffffffffffffffff16815260200190815260200160002060030160016101000a81548160ff02191690831515021790555050508080610ec590611e5c565b915050610b9a565b5060066000815480929190610ee190611e5c565b91905055506002546006541115610efb5760016006819055505b50505050565b6000600254905090565b60606008805480602002602001604051908101604052809291908181526020016000905b8282101561100157838290600052602060002090600402016040518060a0016040529081600082015481526020016001820160009054906101000a900473ffffffffffffffffffffffffffffffffffffffff1673ffffffffffffffffffffffffffffffffffffffff1673ffffffffffffffffffffffffffffffffffffffff168152602001600282015481526020016003820160009054906101000a900460ff161515151581526020016003820160019054906101000a900460ff16151515158152505081526020019060010190610f2f565b50505050905090565b7f0000000000000000000000000000000000000000000000000000000000000000341015611064576040517f3569c8ba00000000000000000000000000000000000000000000000000000000815260040160405180910390fd5b6002600081548092919061107790611e5c565b91905055506003339080600181540180825580915050600190039060005260206000200160009091909190916101000a81548173ffffffffffffffffffffffffffffffffffffffff021916908373ffffffffffffffffffffffffffffffffffffffff1602179055506000600460003373ffffffffffffffffffffffffffffffffffffffff1673ffffffffffffffffffffffffffffffffffffffff168152602001908152602001600020600082825461112f9190611778565b92505081905550600254600560003373ffffffffffffffffffffffffffffffffffffffff1673ffffffffffffffffffffffffffffffffffffffff16815260200190815260200160002081905550346001600082825461118e9190611778565b9250508190555060086040518060a0016040528060025481526020013373ffffffffffffffffffffffffffffffffffffffff168152602001600460003373ffffffffffffffffffffffffffffffffffffffff1673ffffffffffffffffffffffffffffffffffffffff1681526020019081526020016000205481526020016000151581526020016001151581525090806001815401808255809150506001900390600052602060002090600402016000909190919091506000820151816000015560208201518160010160006101000a81548173ffffffffffffffffffffffffffffffffffffffff021916908373ffffffffffffffffffffffffffffffffffffffff1602179055506040820151816002015560608201518160030160006101000a81548160ff02191690831515021790555060808201518160030160016101000a81548160ff02191690831515021790555050506040518060a0016040528060025481526020013373ffffffffffffffffffffffffffffffffffffffff168152602001600460003373ffffffffffffffffffffffffffffffffffffffff1673ffffffffffffffffffffffffffffffffffffffff16815260200190815260200160002054815260200160001515815260200160011515815250600960003373ffffffffffffffffffffffffffffffffffffffff1673ffffffffffffffffffffffffffffffffffffffff1681526020019081526020016000206000820151816000015560208201518160010160006101000a81548173ffffffffffffffffffffffffffffffffffffffff021916908373ffffffffffffffffffffffffffffffffffffffff1602179055506040820151816002015560608201518160030160006101000a81548160ff02191690831515021790555060808201518160030160016101000a81548160ff0219169083151502179055509050503373ffffffffffffffffffffffffffffffffffffffff167fb99735857dcdc72249cabb2a63977805de8a83268ff5f84700cd9da7017130c560405160405180910390a2565b6000600654905090565b6000600460008373ffffffffffffffffffffffffffffffffffffffff1673ffffffffffffffffffffffffffffffffffffffff168152602001908152602001600020549050919050565b60006003600654815481106114f2576114f1611de7565b5b9060005260206000200160009054906101000a900473ffffffffffffffffffffffffffffffffffffffff16905090565b60008054906101000a900473ffffffffffffffffffffffffffffffffffffffff1673ffffffffffffffffffffffffffffffffffffffff163373ffffffffffffffffffffffffffffffffffffffff16146115a7576040517ffe2f327400000000000000000000000000000000000000000000000000000000815260040160405180910390fd5b6000600281905550600360006115bd9190611667565b600860006115cb9190611688565b6001600681905550565b6000600560008373ffffffffffffffffffffffffffffffffffffffff1673ffffffffffffffffffffffffffffffffffffffff168152602001908152602001600020549050919050565b6040518060a0016040528060008152602001600073ffffffffffffffffffffffffffffffffffffffff168152602001600081526020016000151581526020016000151581525090565b508054600082559060005260206000209081019061168591906116ac565b50565b50805460008255600402906000526020600020908101906116a991906116c9565b50565b5b808211156116c55760008160009055506001016116ad565b5090565b5b8082111561173b576000808201600090556001820160006101000a81549073ffffffffffffffffffffffffffffffffffffffff021916905560028201600090556003820160006101000a81549060ff02191690556003820160016101000a81549060ff0219169055506004016116ca565b5090565b6000819050919050565b7f4e487b7100000000000000000000000000000000000000000000000000000000600052601160045260246000fd5b60006117838261173f565b915061178e8361173f565b92508282019050808211156117a6576117a5611749565b5b92915050565b6117b58161173f565b82525050565b60006020820190506117d060008301846117ac565b92915050565b6000604051905090565b600080fd5b600080fd5b600073ffffffffffffffffffffffffffffffffffffffff82169050919050565b6000611815826117ea565b9050919050565b6118258161180a565b811461183057600080fd5b50565b6000813590506118428161181c565b92915050565b60006020828403121561185e5761185d6117e0565b5b600061186c84828501611833565b91505092915050565b61187e8161173f565b82525050565b61188d8161180a565b82525050565b60008115159050919050565b6118a881611893565b82525050565b60a0820160008201516118c46000850182611875565b5060208201516118d76020850182611884565b5060408201516118ea6040850182611875565b5060608201516118fd606085018261189f565b506080820151611910608085018261189f565b50505050565b600060a08201905061192b60008301846118ae565b92915050565b600080fd5b600080fd5b600080fd5b60008083601f84011261195657611955611931565b5b8235905067ffffffffffffffff81111561197357611972611936565b5b60208301915083600182028301111561198f5761198e61193b565b5b9250929050565b600080602083850312156119ad576119ac6117e0565b5b600083013567ffffffffffffffff8111156119cb576119ca6117e5565b5b6119d785828601611940565b92509250509250929050565b6119ec8161173f565b81146119f757600080fd5b50565b600081359050611a09816119e3565b92915050565b600060208284031215611a2557611a246117e0565b5b6000611a33848285016119fa565b91505092915050565b611a458161180a565b82525050565b6000602082019050611a606000830184611a3c565b92915050565b600080fd5b6000601f19601f8301169050919050565b7f4e487b7100000000000000000000000000000000000000000000000000000000600052604160045260246000fd5b611ab482611a6b565b810181811067ffffffffffffffff82111715611ad357611ad2611a7c565b5b80604052505050565b6000611ae66117d6565b9050611af28282611aab565b919050565b600067ffffffffffffffff821115611b1257611b11611a7c565b5b611b1b82611a6b565b9050602081019050919050565b82818337600083830152505050565b6000611b4a611b4584611af7565b611adc565b905082815260208101848484011115611b6657611b65611a66565b5b611b71848285611b28565b509392505050565b600082601f830112611b8e57611b8d611931565b5b8135611b9e848260208601611b37565b91505092915050565b600060208284031215611bbd57611bbc6117e0565b5b600082013567ffffffffffffffff811115611bdb57611bda6117e5565b5b611be784828501611b79565b91505092915050565b611bf981611893565b82525050565b600081519050919050565b600082825260208201905092915050565b60005b83811015611c39578082015181840152602081019050611c1e565b60008484015250505050565b6000611c5082611bff565b611c5a8185611c0a565b9350611c6a818560208601611c1b565b611c7381611a6b565b840191505092915050565b6000604082019050611c936000830185611bf0565b8181036020830152611ca58184611c45565b90509392505050565b600081519050919050565b600082825260208201905092915050565b6000819050602082019050919050565b60a082016000820151611cf06000850182611875565b506020820151611d036020850182611884565b506040820151611d166040850182611875565b506060820151611d29606085018261189f565b506080820151611d3c608085018261189f565b50505050565b6000611d4e8383611cda565b60a08301905092915050565b6000602082019050919050565b6000611d7282611cae565b611d7c8185611cb9565b9350611d8783611cca565b8060005b83811015611db8578151611d9f8882611d42565b9750611daa83611d5a565b925050600181019050611d8b565b5085935050505092915050565b60006020820190508181036000830152611ddf8184611d67565b905092915050565b7f4e487b7100000000000000000000000000000000000000000000000000000000600052603260045260246000fd5b600081905092915050565b50565b6000611e31600083611e16565b9150611e3c82611e21565b600082019050919050565b6000611e5282611e24565b9150819050919050565b6000611e678261173f565b91507fffffffffffffffffffffffffffffffffffffffffffffffffffffffffffffffff8203611e9957611e98611749565b5b600182019050919050565b6000611eaf8261173f565b9150611eba8361173f565b9250828203905081811115611ed257611ed1611749565b5b9291505056fea2646970667358221220a48c2bcc595c18e14f1c2c72ad0e59b8c615ac82b3e8bf1cf930d0936a9c36c464736f6c63430008110033",
  "linkReferences": {},
  "deployedLinkReferences": {}
}