{
  "address": "0xC99df554F832e635a597Bfe84CEfaf1804aAD729",
  "abi": [
    {
      "inputs": [
        {
          "internalType": "uint256",
          "name": "joinFee",
          "type": "uint256"
        },
        {
          "internalType": "uint256",
          "name": "interval",
          "type": "uint256"
        }
      ],
      "stateMutability": "nonpayable",
      "type": "constructor"
    },
    {
      "inputs": [],
      "name": "NotEnoughEthEntered",
      "type": "error"
    },
    {
      "inputs": [],
      "name": "Sacco__NotpaydayTime",
      "type": "error"
    },
    {
      "inputs": [],
      "name": "Sacco__PayoutFailed",
      "type": "error"
    },
    {
      "anonymous": false,
      "inputs": [
        {
          "indexed": true,
          "internalType": "address",
          "name": "user",
          "type": "address"
        },
        {
          "indexed": true,
          "internalType": "uint256",
          "name": "amount",
          "type": "uint256"
        }
      ],
      "name": "MemberPaidOut",
      "type": "event"
    },
    {
      "anonymous": false,
      "inputs": [
        {
          "indexed": true,
          "internalType": "address",
          "name": "player",
          "type": "address"
        }
      ],
      "name": "NewPlayerEntered",
      "type": "event"
    },
    {
      "inputs": [
        {
          "internalType": "bytes",
          "name": "",
          "type": "bytes"
        }
      ],
      "name": "checkUpkeep",
      "outputs": [
        {
          "internalType": "bool",
          "name": "upkeepNeeded",
          "type": "bool"
        },
        {
          "internalType": "bytes",
          "name": "",
          "type": "bytes"
        }
      ],
      "stateMutability": "view",
      "type": "function"
    },
    {
      "inputs": [],
      "name": "getAdmin",
      "outputs": [
        {
          "internalType": "address",
          "name": "",
          "type": "address"
        }
      ],
      "stateMutability": "view",
      "type": "function"
    },
    {
      "inputs": [],
      "name": "getBalance",
      "outputs": [
        {
          "internalType": "uint256",
          "name": "",
          "type": "uint256"
        }
      ],
      "stateMutability": "view",
      "type": "function"
    },
    {
      "inputs": [],
      "name": "getInterval",
      "outputs": [
        {
          "internalType": "uint256",
          "name": "",
          "type": "uint256"
        }
      ],
      "stateMutability": "view",
      "type": "function"
    },
    {
      "inputs": [],
      "name": "getJoinFee",
      "outputs": [
        {
          "internalType": "uint256",
          "name": "",
          "type": "uint256"
        }
      ],
      "stateMutability": "view",
      "type": "function"
    },
    {
      "inputs": [],
      "name": "getLastTimestamp",
      "outputs": [
        {
          "internalType": "uint256",
          "name": "",
          "type": "uint256"
        }
      ],
      "stateMutability": "view",
      "type": "function"
    },
    {
      "inputs": [
        {
          "internalType": "address",
          "name": "memberAddress",
          "type": "address"
        }
      ],
      "name": "getMemberBalance",
      "outputs": [
        {
          "internalType": "uint256",
          "name": "",
          "type": "uint256"
        }
      ],
      "stateMutability": "view",
      "type": "function"
    },
    {
      "inputs": [],
      "name": "getMemberCount",
      "outputs": [
        {
          "internalType": "uint256",
          "name": "",
          "type": "uint256"
        }
      ],
      "stateMutability": "view",
      "type": "function"
    },
    {
      "inputs": [
        {
          "internalType": "uint256",
          "name": "index_",
          "type": "uint256"
        }
      ],
      "name": "getMemberIndex",
      "outputs": [
        {
          "internalType": "address",
          "name": "",
          "type": "address"
        }
      ],
      "stateMutability": "view",
      "type": "function"
    },
    {
      "inputs": [
        {
          "internalType": "address",
          "name": "memberAddress",
          "type": "address"
        }
      ],
      "name": "getMemberNumber",
      "outputs": [
        {
          "internalType": "uint256",
          "name": "",
          "type": "uint256"
        }
      ],
      "stateMutability": "view",
      "type": "function"
    },
    {
      "inputs": [],
      "name": "getNextPaid",
      "outputs": [
        {
          "internalType": "address",
          "name": "",
          "type": "address"
        }
      ],
      "stateMutability": "view",
      "type": "function"
    },
    {
      "inputs": [],
      "name": "getNumberGettingPaid",
      "outputs": [
        {
          "internalType": "uint256",
          "name": "",
          "type": "uint256"
        }
      ],
      "stateMutability": "view",
      "type": "function"
    },
    {
      "inputs": [],
      "name": "join",
      "outputs": [],
      "stateMutability": "payable",
      "type": "function"
    },
    {
      "inputs": [],
      "name": "payoutMembers",
      "outputs": [],
      "stateMutability": "nonpayable",
      "type": "function"
    },
    {
      "inputs": [
        {
          "internalType": "bytes",
          "name": "",
          "type": "bytes"
        }
      ],
      "name": "performUpkeep",
      "outputs": [],
      "stateMutability": "nonpayable",
      "type": "function"
    }
  ],
  "transactionHash": "0x248e45d2e4c9007fee074ee8b9878a6dfc98716b5dd6c94279cea1ada47e94d6",
  "args": [
    "20000000000000000",
    30
  ],
  "numDeployments": 1,
  "solcInputHash": "d590439b61a7096e645ceea5a105d7f5",
  "bytecode": "0x60c06040523480156200001157600080fd5b506040516200144f3803806200144f8339818101604052810190620000379190620000e6565b8160808181525050336000806101000a81548173ffffffffffffffffffffffffffffffffffffffff021916908373ffffffffffffffffffffffffffffffffffffffff1602179055506000600181905550426007819055508060a08181525050600060068190555050506200012d565b600080fd5b6000819050919050565b620000c081620000ab565b8114620000cc57600080fd5b50565b600081519050620000e081620000b5565b92915050565b600080604083850312156200010057620000ff620000a6565b5b60006200011085828601620000cf565b92505060206200012385828601620000cf565b9150509250929050565b60805160a0516112ee620001616000396000818161070801526107bd0152600081816106820152610a5601526112ee6000f3fe6080604052600436106100e85760003560e01c806391ad27b41161008a578063bb01f00e11610059578063bb01f00e146102b4578063ca55753a146102df578063ed0c27201461031c578063fbf1143914610347576100e8565b806391ad27b41461023d57806394d1ba8c14610268578063997072f71461027f578063b688a363146102aa576100e8565b80635cc8edeb116100c65780635cc8edeb1461016c5780636313ec92146101975780636e04ff0d146101d45780636e9960c314610212576100e8565b806312065fe0146100ed57806337899770146101185780634585e33b14610143575b600080fd5b3480156100f957600080fd5b50610102610384565b60405161010f9190610d21565b60405180910390f35b34801561012457600080fd5b5061012d61038e565b60405161013a9190610d21565b60405180910390f35b34801561014f57600080fd5b5061016a60048036038101906101659190610db5565b610398565b005b34801561017857600080fd5b5061018161067e565b60405161018e9190610d21565b60405180910390f35b3480156101a357600080fd5b506101be60048036038101906101b99190610e2e565b6106a6565b6040516101cb9190610e9c565b60405180910390f35b3480156101e057600080fd5b506101fb60048036038101906101f69190610ff8565b6106ee565b6040516102099291906110db565b60405180910390f35b34801561021e57600080fd5b50610227610790565b6040516102349190610e9c565b60405180910390f35b34801561024957600080fd5b506102526107b9565b60405161025f9190610d21565b60405180910390f35b34801561027457600080fd5b5061027d6107e1565b005b34801561028b57600080fd5b50610294610a4a565b6040516102a19190610d21565b60405180910390f35b6102b2610a54565b005b3480156102c057600080fd5b506102c9610c24565b6040516102d69190610d21565b60405180910390f35b3480156102eb57600080fd5b5061030660048036038101906103019190611137565b610c2e565b6040516103139190610d21565b60405180910390f35b34801561032857600080fd5b50610331610c77565b60405161033e9190610e9c565b60405180910390f35b34801561035357600080fd5b5061036e60048036038101906103699190611137565b610cbf565b60405161037b9190610d21565b60405180910390f35b6000600154905090565b6000600754905090565b60006103d86040518060400160405280600181526020017f20000000000000000000000000000000000000000000000000000000000000008152506106ee565b50905080610412576040517f36ec0bd700000000000000000000000000000000000000000000000000000000815260040160405180910390fd5b42600781905550600254600654111561042e5760006006819055505b600047905060005b60038054905081101561065f5760006003828154811061045957610458611164565b5b9060005260206000200160009054906101000a900473ffffffffffffffffffffffffffffffffffffffff169050600060036006548154811061049e5761049d611164565b5b9060005260206000200160009054906101000a900473ffffffffffffffffffffffffffffffffffffffff1690508073ffffffffffffffffffffffffffffffffffffffff168273ffffffffffffffffffffffffffffffffffffffff160361064a5760008173ffffffffffffffffffffffffffffffffffffffff1647604051610524906111c4565b60006040518083038185875af1925050503d8060008114610561576040519150601f19603f3d011682016040523d82523d6000602084013e610566565b606091505b50509050806105a1576040517fbb8cc58b00000000000000000000000000000000000000000000000000000000815260040160405180910390fd5b84600460008473ffffffffffffffffffffffffffffffffffffffff1673ffffffffffffffffffffffffffffffffffffffff16815260200190815260200160002060008282546105f09190611208565b92505081905550600047905080600181905550858473ffffffffffffffffffffffffffffffffffffffff167f3e4045fd8ffb23648eb0cb47abf1cd0da79b361202f29f1259f2033c7e48367a60405160405180910390a350505b505080806106579061123c565b915050610436565b50600660008154809291906106739061123c565b919050555050505050565b60007f0000000000000000000000000000000000000000000000000000000000000000905090565b6000600382815481106106bc576106bb611164565b5b9060005260206000200160009054906101000a900473ffffffffffffffffffffffffffffffffffffffff169050919050565b6000606060008060025411905060008060015411905060007f0000000000000000000000000000000000000000000000000000000000000000600754426107359190611284565b1190508080156107425750815b801561074b5750825b9450846040518060400160405280600381526020017f307830000000000000000000000000000000000000000000000000000000000081525094509450505050915091565b60008060009054906101000a900473ffffffffffffffffffffffffffffffffffffffff16905090565b60007f0000000000000000000000000000000000000000000000000000000000000000905090565b4260078190555060025460065411156107fd5760006006819055505b600047905060005b600380549050811015610a2e5760006003828154811061082857610827611164565b5b9060005260206000200160009054906101000a900473ffffffffffffffffffffffffffffffffffffffff169050600060036006548154811061086d5761086c611164565b5b9060005260206000200160009054906101000a900473ffffffffffffffffffffffffffffffffffffffff1690508073ffffffffffffffffffffffffffffffffffffffff168273ffffffffffffffffffffffffffffffffffffffff1603610a195760008173ffffffffffffffffffffffffffffffffffffffff16476040516108f3906111c4565b60006040518083038185875af1925050503d8060008114610930576040519150601f19603f3d011682016040523d82523d6000602084013e610935565b606091505b5050905080610970576040517fbb8cc58b00000000000000000000000000000000000000000000000000000000815260040160405180910390fd5b84600460008473ffffffffffffffffffffffffffffffffffffffff1673ffffffffffffffffffffffffffffffffffffffff16815260200190815260200160002060008282546109bf9190611208565b92505081905550600047905080600181905550858473ffffffffffffffffffffffffffffffffffffffff167f3e4045fd8ffb23648eb0cb47abf1cd0da79b361202f29f1259f2033c7e48367a60405160405180910390a350505b50508080610a269061123c565b915050610805565b5060066000815480929190610a429061123c565b919050555050565b6000600254905090565b7f0000000000000000000000000000000000000000000000000000000000000000341015610aae576040517f3569c8ba00000000000000000000000000000000000000000000000000000000815260040160405180910390fd5b60026000815480929190610ac19061123c565b91905055506003339080600181540180825580915050600190039060005260206000200160009091909190916101000a81548173ffffffffffffffffffffffffffffffffffffffff021916908373ffffffffffffffffffffffffffffffffffffffff1602179055506000600460003373ffffffffffffffffffffffffffffffffffffffff1673ffffffffffffffffffffffffffffffffffffffff1681526020019081526020016000206000828254610b799190611208565b92505081905550600254600560003373ffffffffffffffffffffffffffffffffffffffff1673ffffffffffffffffffffffffffffffffffffffff168152602001908152602001600020819055503460016000828254610bd89190611208565b925050819055503373ffffffffffffffffffffffffffffffffffffffff167fb99735857dcdc72249cabb2a63977805de8a83268ff5f84700cd9da7017130c560405160405180910390a2565b6000600654905090565b6000600460008373ffffffffffffffffffffffffffffffffffffffff1673ffffffffffffffffffffffffffffffffffffffff168152602001908152602001600020549050919050565b6000600360065481548110610c8f57610c8e611164565b5b9060005260206000200160009054906101000a900473ffffffffffffffffffffffffffffffffffffffff16905090565b6000600560008373ffffffffffffffffffffffffffffffffffffffff1673ffffffffffffffffffffffffffffffffffffffff168152602001908152602001600020549050919050565b6000819050919050565b610d1b81610d08565b82525050565b6000602082019050610d366000830184610d12565b92915050565b6000604051905090565b600080fd5b600080fd5b600080fd5b600080fd5b600080fd5b60008083601f840112610d7557610d74610d50565b5b8235905067ffffffffffffffff811115610d9257610d91610d55565b5b602083019150836001820283011115610dae57610dad610d5a565b5b9250929050565b60008060208385031215610dcc57610dcb610d46565b5b600083013567ffffffffffffffff811115610dea57610de9610d4b565b5b610df685828601610d5f565b92509250509250929050565b610e0b81610d08565b8114610e1657600080fd5b50565b600081359050610e2881610e02565b92915050565b600060208284031215610e4457610e43610d46565b5b6000610e5284828501610e19565b91505092915050565b600073ffffffffffffffffffffffffffffffffffffffff82169050919050565b6000610e8682610e5b565b9050919050565b610e9681610e7b565b82525050565b6000602082019050610eb16000830184610e8d565b92915050565b600080fd5b6000601f19601f8301169050919050565b7f4e487b7100000000000000000000000000000000000000000000000000000000600052604160045260246000fd5b610f0582610ebc565b810181811067ffffffffffffffff82111715610f2457610f23610ecd565b5b80604052505050565b6000610f37610d3c565b9050610f438282610efc565b919050565b600067ffffffffffffffff821115610f6357610f62610ecd565b5b610f6c82610ebc565b9050602081019050919050565b82818337600083830152505050565b6000610f9b610f9684610f48565b610f2d565b905082815260208101848484011115610fb757610fb6610eb7565b5b610fc2848285610f79565b509392505050565b600082601f830112610fdf57610fde610d50565b5b8135610fef848260208601610f88565b91505092915050565b60006020828403121561100e5761100d610d46565b5b600082013567ffffffffffffffff81111561102c5761102b610d4b565b5b61103884828501610fca565b91505092915050565b60008115159050919050565b61105681611041565b82525050565b600081519050919050565b600082825260208201905092915050565b60005b8381101561109657808201518184015260208101905061107b565b60008484015250505050565b60006110ad8261105c565b6110b78185611067565b93506110c7818560208601611078565b6110d081610ebc565b840191505092915050565b60006040820190506110f0600083018561104d565b818103602083015261110281846110a2565b90509392505050565b61111481610e7b565b811461111f57600080fd5b50565b6000813590506111318161110b565b92915050565b60006020828403121561114d5761114c610d46565b5b600061115b84828501611122565b91505092915050565b7f4e487b7100000000000000000000000000000000000000000000000000000000600052603260045260246000fd5b600081905092915050565b50565b60006111ae600083611193565b91506111b98261119e565b600082019050919050565b60006111cf826111a1565b9150819050919050565b7f4e487b7100000000000000000000000000000000000000000000000000000000600052601160045260246000fd5b600061121382610d08565b915061121e83610d08565b9250828201905080821115611236576112356111d9565b5b92915050565b600061124782610d08565b91507fffffffffffffffffffffffffffffffffffffffffffffffffffffffffffffffff8203611279576112786111d9565b5b600182019050919050565b600061128f82610d08565b915061129a83610d08565b92508282039050818111156112b2576112b16111d9565b5b9291505056fea26469706673582212201241b2903a87d3c7798308d4613871ef31b8a1cd3720169fef8b33ab3118693264736f6c63430008110033",
  "devdoc": {
    "kind": "dev",
    "methods": {},
    "version": 1
  },
  "userdoc": {
    "kind": "user",
    "methods": {},
    "version": 1
  },
  "storageLayout": {
    "storage": [
      {
        "astId": 34,
        "contract": "contracts/Sacco.sol:Sacco",
        "label": "i_admin",
        "offset": 0,
        "slot": "0",
        "type": "t_address"
      },
      {
        "astId": 36,
        "contract": "contracts/Sacco.sol:Sacco",
        "label": "s_balances",
        "offset": 0,
        "slot": "1",
        "type": "t_uint256"
      },
      {
        "astId": 38,
        "contract": "contracts/Sacco.sol:Sacco",
        "label": "s_membersCount",
        "offset": 0,
        "slot": "2",
        "type": "t_uint256"
      },
      {
        "astId": 43,
        "contract": "contracts/Sacco.sol:Sacco",
        "label": "s_members",
        "offset": 0,
        "slot": "3",
        "type": "t_array(t_address_payable)dyn_storage"
      },
      {
        "astId": 47,
        "contract": "contracts/Sacco.sol:Sacco",
        "label": "s_memberBalance",
        "offset": 0,
        "slot": "4",
        "type": "t_mapping(t_address,t_uint256)"
      },
      {
        "astId": 51,
        "contract": "contracts/Sacco.sol:Sacco",
        "label": "s_memberNumber",
        "offset": 0,
        "slot": "5",
        "type": "t_mapping(t_address,t_uint256)"
      },
      {
        "astId": 53,
        "contract": "contracts/Sacco.sol:Sacco",
        "label": "s_num_gettingPaid",
        "offset": 0,
        "slot": "6",
        "type": "t_uint256"
      },
      {
        "astId": 55,
        "contract": "contracts/Sacco.sol:Sacco",
        "label": "s_lastTimeStamp",
        "offset": 0,
        "slot": "7",
        "type": "t_uint256"
      }
    ],
    "types": {
      "t_address": {
        "encoding": "inplace",
        "label": "address",
        "numberOfBytes": "20"
      },
      "t_address_payable": {
        "encoding": "inplace",
        "label": "address payable",
        "numberOfBytes": "20"
      },
      "t_array(t_address_payable)dyn_storage": {
        "base": "t_address_payable",
        "encoding": "dynamic_array",
        "label": "address payable[]",
        "numberOfBytes": "32"
      },
      "t_mapping(t_address,t_uint256)": {
        "encoding": "mapping",
        "key": "t_address",
        "label": "mapping(address => uint256)",
        "numberOfBytes": "32",
        "value": "t_uint256"
      },
      "t_uint256": {
        "encoding": "inplace",
        "label": "uint256",
        "numberOfBytes": "32"
      }
    }
  }
}