{
  "address": "0xCEcfE9D6ADA5be3daf47cA0c40c31922AA7d954b",
  "abi": [
    {
      "inputs": [
        {
          "internalType": "uint256",
          "name": "joinFee",
          "type": "uint256"
        },
        {
          "internalType": "uint256",
          "name": "interval",
          "type": "uint256"
        },
        {
          "internalType": "address",
          "name": "keepersRegistryAddress",
          "type": "address"
        }
      ],
      "stateMutability": "nonpayable",
      "type": "constructor"
    },
    {
      "inputs": [],
      "name": "NotEnoughEthEntered",
      "type": "error"
    },
    {
      "inputs": [],
      "name": "Sacco__AlreadyContributed",
      "type": "error"
    },
    {
      "inputs": [],
      "name": "Sacco__NotPermitted",
      "type": "error"
    },
    {
      "inputs": [],
      "name": "Sacco__NotpaydayTime",
      "type": "error"
    },
    {
      "inputs": [],
      "name": "Sacco__PayoutFailed",
      "type": "error"
    },
    {
      "inputs": [],
      "name": "Sacco__RequestNotPermitted",
      "type": "error"
    },
    {
      "inputs": [],
      "name": "Sacco__UpkeepNotNeeded",
      "type": "error"
    },
    {
      "inputs": [],
      "name": "Sacco__WrongFeeAmount",
      "type": "error"
    },
    {
      "anonymous": false,
      "inputs": [
        {
          "indexed": true,
          "internalType": "address",
          "name": "member",
          "type": "address"
        },
        {
          "indexed": true,
          "internalType": "uint256",
          "name": "amount",
          "type": "uint256"
        }
      ],
      "name": "Deposit",
      "type": "event"
    },
    {
      "anonymous": false,
      "inputs": [
        {
          "indexed": true,
          "internalType": "address",
          "name": "user",
          "type": "address"
        },
        {
          "indexed": true,
          "internalType": "uint256",
          "name": "amount",
          "type": "uint256"
        }
      ],
      "name": "MemberPaidOut",
      "type": "event"
    },
    {
      "anonymous": false,
      "inputs": [
        {
          "indexed": true,
          "internalType": "address",
          "name": "player",
          "type": "address"
        }
      ],
      "name": "NewPlayerEntered",
      "type": "event"
    },
    {
      "stateMutability": "payable",
      "type": "fallback"
    },
    {
      "inputs": [
        {
          "internalType": "bytes",
          "name": "",
          "type": "bytes"
        }
      ],
      "name": "checkUpkeep",
      "outputs": [
        {
          "internalType": "bool",
          "name": "upkeepNeeded",
          "type": "bool"
        },
        {
          "internalType": "bytes",
          "name": "",
          "type": "bytes"
        }
      ],
      "stateMutability": "view",
      "type": "function"
    },
    {
      "inputs": [],
      "name": "clearSacco",
      "outputs": [],
      "stateMutability": "nonpayable",
      "type": "function"
    },
    {
      "inputs": [],
      "name": "getAdmin",
      "outputs": [
        {
          "internalType": "address",
          "name": "",
          "type": "address"
        }
      ],
      "stateMutability": "view",
      "type": "function"
    },
    {
      "inputs": [],
      "name": "getBalance",
      "outputs": [
        {
          "internalType": "uint256",
          "name": "",
          "type": "uint256"
        }
      ],
      "stateMutability": "view",
      "type": "function"
    },
    {
      "inputs": [],
      "name": "getInterval",
      "outputs": [
        {
          "internalType": "uint256",
          "name": "",
          "type": "uint256"
        }
      ],
      "stateMutability": "view",
      "type": "function"
    },
    {
      "inputs": [],
      "name": "getJoinFee",
      "outputs": [
        {
          "internalType": "uint256",
          "name": "",
          "type": "uint256"
        }
      ],
      "stateMutability": "view",
      "type": "function"
    },
    {
      "inputs": [],
      "name": "getLastTimestamp",
      "outputs": [
        {
          "internalType": "uint256",
          "name": "",
          "type": "uint256"
        }
      ],
      "stateMutability": "view",
      "type": "function"
    },
    {
      "inputs": [
        {
          "internalType": "address",
          "name": "memberAddress",
          "type": "address"
        }
      ],
      "name": "getMemberBalance",
      "outputs": [
        {
          "internalType": "uint256",
          "name": "",
          "type": "uint256"
        }
      ],
      "stateMutability": "view",
      "type": "function"
    },
    {
      "inputs": [],
      "name": "getMemberCount",
      "outputs": [
        {
          "internalType": "uint256",
          "name": "",
          "type": "uint256"
        }
      ],
      "stateMutability": "view",
      "type": "function"
    },
    {
      "inputs": [
        {
          "internalType": "uint256",
          "name": "index_",
          "type": "uint256"
        }
      ],
      "name": "getMemberIndex",
      "outputs": [
        {
          "internalType": "address",
          "name": "",
          "type": "address"
        }
      ],
      "stateMutability": "view",
      "type": "function"
    },
    {
      "inputs": [
        {
          "internalType": "address",
          "name": "memberAddress",
          "type": "address"
        }
      ],
      "name": "getMemberNumber",
      "outputs": [
        {
          "internalType": "uint256",
          "name": "",
          "type": "uint256"
        }
      ],
      "stateMutability": "view",
      "type": "function"
    },
    {
      "inputs": [
        {
          "internalType": "address",
          "name": "memberAddress_",
          "type": "address"
        }
      ],
      "name": "getMembersDetails",
      "outputs": [
        {
          "components": [
            {
              "internalType": "uint256",
              "name": "memberNumber",
              "type": "uint256"
            },
            {
              "internalType": "address",
              "name": "memberAddress",
              "type": "address"
            },
            {
              "internalType": "uint256",
              "name": "memberBalance",
              "type": "uint256"
            },
            {
              "internalType": "bool",
              "name": "getsPaidNext",
              "type": "bool"
            },
            {
              "internalType": "bool",
              "name": "hasContributed",
              "type": "bool"
            }
          ],
          "internalType": "struct Sacco.Member",
          "name": "",
          "type": "tuple"
        }
      ],
      "stateMutability": "view",
      "type": "function"
    },
    {
      "inputs": [],
      "name": "getMembersList",
      "outputs": [
        {
          "components": [
            {
              "internalType": "uint256",
              "name": "memberNumber",
              "type": "uint256"
            },
            {
              "internalType": "address",
              "name": "memberAddress",
              "type": "address"
            },
            {
              "internalType": "uint256",
              "name": "memberBalance",
              "type": "uint256"
            },
            {
              "internalType": "bool",
              "name": "getsPaidNext",
              "type": "bool"
            },
            {
              "internalType": "bool",
              "name": "hasContributed",
              "type": "bool"
            }
          ],
          "internalType": "struct Sacco.Member[]",
          "name": "",
          "type": "tuple[]"
        }
      ],
      "stateMutability": "view",
      "type": "function"
    },
    {
      "inputs": [],
      "name": "getNextPaid",
      "outputs": [
        {
          "internalType": "address",
          "name": "",
          "type": "address"
        }
      ],
      "stateMutability": "view",
      "type": "function"
    },
    {
      "inputs": [],
      "name": "getNumberGettingPaid",
      "outputs": [
        {
          "internalType": "uint256",
          "name": "",
          "type": "uint256"
        }
      ],
      "stateMutability": "view",
      "type": "function"
    },
    {
      "inputs": [],
      "name": "join",
      "outputs": [],
      "stateMutability": "payable",
      "type": "function"
    },
    {
      "inputs": [],
      "name": "payoutMembers",
      "outputs": [],
      "stateMutability": "nonpayable",
      "type": "function"
    },
    {
      "inputs": [
        {
          "internalType": "bytes",
          "name": "",
          "type": "bytes"
        }
      ],
      "name": "performUpkeep",
      "outputs": [],
      "stateMutability": "nonpayable",
      "type": "function"
    },
    {
      "stateMutability": "payable",
      "type": "receive"
    }
  ],
  "transactionHash": "0xcb8ae156afa06520a9e4531fe2c56357ddb6a0d4c03e9f45ba852880b5cb8425",
  "args": [
    "20000000000000000",
    120,
    "0x02777053d6764996e594c3E88AF1D58D5363a2e6"
  ],
  "numDeployments": 12,
  "solcInputHash": "f86c331db66e6e3327876c85d64bc899",
  "bytecode": "0x60e06040523480156200001157600080fd5b50604051620021b4380380620021b4833981810160405281019062000037919062000180565b8260808181525050336000806101000a81548173ffffffffffffffffffffffffffffffffffffffff021916908373ffffffffffffffffffffffffffffffffffffffff1602179055506000600181905550426007819055508160a0818152505060016006819055508073ffffffffffffffffffffffffffffffffffffffff1660c08173ffffffffffffffffffffffffffffffffffffffff1681525050505050620001dc565b600080fd5b6000819050919050565b620000f581620000e0565b81146200010157600080fd5b50565b6000815190506200011581620000ea565b92915050565b600073ffffffffffffffffffffffffffffffffffffffff82169050919050565b600062000148826200011b565b9050919050565b6200015a816200013b565b81146200016657600080fd5b50565b6000815190506200017a816200014f565b92915050565b6000806000606084860312156200019c576200019b620000db565b5b6000620001ac8682870162000104565b9350506020620001bf8682870162000104565b9250506040620001d28682870162000169565b9150509250925092565b60805160a05160c051611f93620002216000396000610b21015260008181610a460152610afb015260008181610114015281816109c001526110910152611f936000f3fe60806040526004361061010d5760003560e01c806394d1ba8c11610095578063bb01f00e11610064578063bb01f00e146104e2578063ca55753a1461050d578063ed0c27201461054a578063f49a2b2114610575578063fbf114391461058c576102b1565b806394d1ba8c1461046b578063997072f714610482578063a147d932146104ad578063b688a363146104d8576102b1565b80635cc8edeb116100dc5780635cc8edeb1461036f5780636313ec921461039a5780636e04ff0d146103d75780636e9960c31461041557806391ad27b414610440576102b1565b806312065fe0146102b35780631a9f1011146102de578063378997701461031b5780634585e33b14610346576102b1565b366102b1577f0000000000000000000000000000000000000000000000000000000000000000341461016b576040517f7116cadf00000000000000000000000000000000000000000000000000000000815260040160405180910390fd5b6000600960003373ffffffffffffffffffffffffffffffffffffffff1673ffffffffffffffffffffffffffffffffffffffff16815260200190815260200160002060030160019054906101000a900460ff16905080156101f7576040517faab0347900000000000000000000000000000000000000000000000000000000815260040160405180910390fd5b6001600960003373ffffffffffffffffffffffffffffffffffffffff1673ffffffffffffffffffffffffffffffffffffffff16815260200190815260200160002060030160016101000a81548160ff021916908315150217905550346001600082825461026491906117fd565b92505081905550343373ffffffffffffffffffffffffffffffffffffffff167fe1fffcc4923d04b559f4d29a8bfc6cda04eb5b0d3c460751c2402c5c5cc9109c60405160405180910390a3005b005b3480156102bf57600080fd5b506102c86105c9565b6040516102d59190611840565b60405180910390f35b3480156102ea57600080fd5b50610305600480360381019061030091906118cd565b6105d3565b604051610312919061199b565b60405180910390f35b34801561032757600080fd5b506103306106cc565b60405161033d9190611840565b60405180910390f35b34801561035257600080fd5b5061036d60048036038101906103689190611a1b565b6106d6565b005b34801561037b57600080fd5b506103846109bc565b6040516103919190611840565b60405180910390f35b3480156103a657600080fd5b506103c160048036038101906103bc9190611a94565b6109e4565b6040516103ce9190611ad0565b60405180910390f35b3480156103e357600080fd5b506103fe60048036038101906103f99190611c2c565b610a2c565b60405161040c929190611d03565b60405180910390f35b34801561042157600080fd5b5061042a610ace565b6040516104379190611ad0565b60405180910390f35b34801561044c57600080fd5b50610455610af7565b6040516104629190611840565b60405180910390f35b34801561047757600080fd5b50610480610b1f565b005b34801561048e57600080fd5b50610497610f86565b6040516104a49190611840565b60405180910390f35b3480156104b957600080fd5b506104c2610f90565b6040516104cf9190611e4a565b60405180910390f35b6104e061108f565b005b3480156104ee57600080fd5b506104f761150c565b6040516105049190611840565b60405180910390f35b34801561051957600080fd5b50610534600480360381019061052f91906118cd565b611516565b6040516105419190611840565b60405180910390f35b34801561055657600080fd5b5061055f61155f565b60405161056c9190611ad0565b60405180910390f35b34801561058157600080fd5b5061058a6115a7565b005b34801561059857600080fd5b506105b360048036038101906105ae91906118cd565b61165a565b6040516105c09190611840565b60405180910390f35b6000600154905090565b6105db6116a3565b600960008373ffffffffffffffffffffffffffffffffffffffff1673ffffffffffffffffffffffffffffffffffffffff1681526020019081526020016000206040518060a0016040529081600082015481526020016001820160009054906101000a900473ffffffffffffffffffffffffffffffffffffffff1673ffffffffffffffffffffffffffffffffffffffff1673ffffffffffffffffffffffffffffffffffffffff168152602001600282015481526020016003820160009054906101000a900460ff161515151581526020016003820160019054906101000a900460ff1615151515815250509050919050565b6000600754905090565b60006107166040518060400160405280600181526020017f2000000000000000000000000000000000000000000000000000000000000000815250610a2c565b50905080610750576040517f36ec0bd700000000000000000000000000000000000000000000000000000000815260040160405180910390fd5b42600781905550600254600654111561076c5760006006819055505b600047905060005b60038054905081101561099d5760006003828154811061079757610796611e6c565b5b9060005260206000200160009054906101000a900473ffffffffffffffffffffffffffffffffffffffff16905060006003600654815481106107dc576107db611e6c565b5b9060005260206000200160009054906101000a900473ffffffffffffffffffffffffffffffffffffffff1690508073ffffffffffffffffffffffffffffffffffffffff168273ffffffffffffffffffffffffffffffffffffffff16036109885760008173ffffffffffffffffffffffffffffffffffffffff164760405161086290611ecc565b60006040518083038185875af1925050503d806000811461089f576040519150601f19603f3d011682016040523d82523d6000602084013e6108a4565b606091505b50509050806108df576040517fbb8cc58b00000000000000000000000000000000000000000000000000000000815260040160405180910390fd5b84600460008473ffffffffffffffffffffffffffffffffffffffff1673ffffffffffffffffffffffffffffffffffffffff168152602001908152602001600020600082825461092e91906117fd565b92505081905550600047905080600181905550858473ffffffffffffffffffffffffffffffffffffffff167f3e4045fd8ffb23648eb0cb47abf1cd0da79b361202f29f1259f2033c7e48367a60405160405180910390a350505b5050808061099590611ee1565b915050610774565b50600660008154809291906109b190611ee1565b919050555050505050565b60007f0000000000000000000000000000000000000000000000000000000000000000905090565b6000600382815481106109fa576109f9611e6c565b5b9060005260206000200160009054906101000a900473ffffffffffffffffffffffffffffffffffffffff169050919050565b6000606060008060025411905060008060015411905060007f000000000000000000000000000000000000000000000000000000000000000060075442610a739190611f29565b119050808015610a805750815b8015610a895750825b9450846040518060400160405280600381526020017f307830000000000000000000000000000000000000000000000000000000000081525094509450505050915091565b60008060009054906101000a900473ffffffffffffffffffffffffffffffffffffffff16905090565b60007f0000000000000000000000000000000000000000000000000000000000000000905090565b7f000000000000000000000000000000000000000000000000000000000000000073ffffffffffffffffffffffffffffffffffffffff163373ffffffffffffffffffffffffffffffffffffffff1614610ba4576040517fd03cc00400000000000000000000000000000000000000000000000000000000815260040160405180910390fd5b6000806002541190506000806001541190506000818015610bc25750825b905080610bfb576040517f7d7eb1ee00000000000000000000000000000000000000000000000000000000815260040160405180910390fd5b426007819055506002546006541115610c175760016006819055505b600047905060005b600380549050811015610f5257600060038281548110610c4257610c41611e6c565b5b9060005260206000200160009054906101000a900473ffffffffffffffffffffffffffffffffffffffff169050600060036001600654610c829190611f29565b81548110610c9357610c92611e6c565b5b9060005260206000200160009054906101000a900473ffffffffffffffffffffffffffffffffffffffff1690508073ffffffffffffffffffffffffffffffffffffffff168273ffffffffffffffffffffffffffffffffffffffff1603610ee2576000600960008473ffffffffffffffffffffffffffffffffffffffff1673ffffffffffffffffffffffffffffffffffffffff16815260200190815260200160002060030160019054906101000a900460ff1690508015610ee05760008273ffffffffffffffffffffffffffffffffffffffff1647604051610d7390611ecc565b60006040518083038185875af1925050503d8060008114610db0576040519150601f19603f3d011682016040523d82523d6000602084013e610db5565b606091505b5050905080610df0576040517fbb8cc58b00000000000000000000000000000000000000000000000000000000815260040160405180910390fd5b85600460008573ffffffffffffffffffffffffffffffffffffffff1673ffffffffffffffffffffffffffffffffffffffff1681526020019081526020016000206000828254610e3f91906117fd565b9250508190555085600960003373ffffffffffffffffffffffffffffffffffffffff1673ffffffffffffffffffffffffffffffffffffffff16815260200190815260200160002060020181905550600047905080600181905550868573ffffffffffffffffffffffffffffffffffffffff167f3e4045fd8ffb23648eb0cb47abf1cd0da79b361202f29f1259f2033c7e48367a60405160405180910390a350505b505b6000600960008473ffffffffffffffffffffffffffffffffffffffff1673ffffffffffffffffffffffffffffffffffffffff16815260200190815260200160002060030160016101000a81548160ff02191690831515021790555050508080610f4a90611ee1565b915050610c1f565b5060066000815480929190610f6690611ee1565b91905055506002546006541115610f805760016006819055505b50505050565b6000600254905090565b60606008805480602002602001604051908101604052809291908181526020016000905b8282101561108657838290600052602060002090600402016040518060a0016040529081600082015481526020016001820160009054906101000a900473ffffffffffffffffffffffffffffffffffffffff1673ffffffffffffffffffffffffffffffffffffffff1673ffffffffffffffffffffffffffffffffffffffff168152602001600282015481526020016003820160009054906101000a900460ff161515151581526020016003820160019054906101000a900460ff16151515158152505081526020019060010190610fb4565b50505050905090565b7f00000000000000000000000000000000000000000000000000000000000000003410156110e9576040517f3569c8ba00000000000000000000000000000000000000000000000000000000815260040160405180910390fd5b600260008154809291906110fc90611ee1565b91905055506003339080600181540180825580915050600190039060005260206000200160009091909190916101000a81548173ffffffffffffffffffffffffffffffffffffffff021916908373ffffffffffffffffffffffffffffffffffffffff1602179055506000600460003373ffffffffffffffffffffffffffffffffffffffff1673ffffffffffffffffffffffffffffffffffffffff16815260200190815260200160002060008282546111b491906117fd565b92505081905550600254600560003373ffffffffffffffffffffffffffffffffffffffff1673ffffffffffffffffffffffffffffffffffffffff16815260200190815260200160002081905550346001600082825461121391906117fd565b9250508190555060086040518060a0016040528060025481526020013373ffffffffffffffffffffffffffffffffffffffff168152602001600460003373ffffffffffffffffffffffffffffffffffffffff1673ffffffffffffffffffffffffffffffffffffffff1681526020019081526020016000205481526020016000151581526020016001151581525090806001815401808255809150506001900390600052602060002090600402016000909190919091506000820151816000015560208201518160010160006101000a81548173ffffffffffffffffffffffffffffffffffffffff021916908373ffffffffffffffffffffffffffffffffffffffff1602179055506040820151816002015560608201518160030160006101000a81548160ff02191690831515021790555060808201518160030160016101000a81548160ff02191690831515021790555050506040518060a0016040528060025481526020013373ffffffffffffffffffffffffffffffffffffffff168152602001600460003373ffffffffffffffffffffffffffffffffffffffff1673ffffffffffffffffffffffffffffffffffffffff16815260200190815260200160002054815260200160001515815260200160011515815250600960003373ffffffffffffffffffffffffffffffffffffffff1673ffffffffffffffffffffffffffffffffffffffff1681526020019081526020016000206000820151816000015560208201518160010160006101000a81548173ffffffffffffffffffffffffffffffffffffffff021916908373ffffffffffffffffffffffffffffffffffffffff1602179055506040820151816002015560608201518160030160006101000a81548160ff02191690831515021790555060808201518160030160016101000a81548160ff0219169083151502179055509050503373ffffffffffffffffffffffffffffffffffffffff167fb99735857dcdc72249cabb2a63977805de8a83268ff5f84700cd9da7017130c560405160405180910390a2565b6000600654905090565b6000600460008373ffffffffffffffffffffffffffffffffffffffff1673ffffffffffffffffffffffffffffffffffffffff168152602001908152602001600020549050919050565b600060036006548154811061157757611576611e6c565b5b9060005260206000200160009054906101000a900473ffffffffffffffffffffffffffffffffffffffff16905090565b60008054906101000a900473ffffffffffffffffffffffffffffffffffffffff1673ffffffffffffffffffffffffffffffffffffffff163373ffffffffffffffffffffffffffffffffffffffff161461162c576040517ffe2f327400000000000000000000000000000000000000000000000000000000815260040160405180910390fd5b60006002819055506003600061164291906116ec565b60086000611650919061170d565b6001600681905550565b6000600560008373ffffffffffffffffffffffffffffffffffffffff1673ffffffffffffffffffffffffffffffffffffffff168152602001908152602001600020549050919050565b6040518060a0016040528060008152602001600073ffffffffffffffffffffffffffffffffffffffff168152602001600081526020016000151581526020016000151581525090565b508054600082559060005260206000209081019061170a9190611731565b50565b508054600082556004029060005260206000209081019061172e919061174e565b50565b5b8082111561174a576000816000905550600101611732565b5090565b5b808211156117c0576000808201600090556001820160006101000a81549073ffffffffffffffffffffffffffffffffffffffff021916905560028201600090556003820160006101000a81549060ff02191690556003820160016101000a81549060ff02191690555060040161174f565b5090565b6000819050919050565b7f4e487b7100000000000000000000000000000000000000000000000000000000600052601160045260246000fd5b6000611808826117c4565b9150611813836117c4565b925082820190508082111561182b5761182a6117ce565b5b92915050565b61183a816117c4565b82525050565b60006020820190506118556000830184611831565b92915050565b6000604051905090565b600080fd5b600080fd5b600073ffffffffffffffffffffffffffffffffffffffff82169050919050565b600061189a8261186f565b9050919050565b6118aa8161188f565b81146118b557600080fd5b50565b6000813590506118c7816118a1565b92915050565b6000602082840312156118e3576118e2611865565b5b60006118f1848285016118b8565b91505092915050565b611903816117c4565b82525050565b6119128161188f565b82525050565b60008115159050919050565b61192d81611918565b82525050565b60a08201600082015161194960008501826118fa565b50602082015161195c6020850182611909565b50604082015161196f60408501826118fa565b5060608201516119826060850182611924565b5060808201516119956080850182611924565b50505050565b600060a0820190506119b06000830184611933565b92915050565b600080fd5b600080fd5b600080fd5b60008083601f8401126119db576119da6119b6565b5b8235905067ffffffffffffffff8111156119f8576119f76119bb565b5b602083019150836001820283011115611a1457611a136119c0565b5b9250929050565b60008060208385031215611a3257611a31611865565b5b600083013567ffffffffffffffff811115611a5057611a4f61186a565b5b611a5c858286016119c5565b92509250509250929050565b611a71816117c4565b8114611a7c57600080fd5b50565b600081359050611a8e81611a68565b92915050565b600060208284031215611aaa57611aa9611865565b5b6000611ab884828501611a7f565b91505092915050565b611aca8161188f565b82525050565b6000602082019050611ae56000830184611ac1565b92915050565b600080fd5b6000601f19601f8301169050919050565b7f4e487b7100000000000000000000000000000000000000000000000000000000600052604160045260246000fd5b611b3982611af0565b810181811067ffffffffffffffff82111715611b5857611b57611b01565b5b80604052505050565b6000611b6b61185b565b9050611b778282611b30565b919050565b600067ffffffffffffffff821115611b9757611b96611b01565b5b611ba082611af0565b9050602081019050919050565b82818337600083830152505050565b6000611bcf611bca84611b7c565b611b61565b905082815260208101848484011115611beb57611bea611aeb565b5b611bf6848285611bad565b509392505050565b600082601f830112611c1357611c126119b6565b5b8135611c23848260208601611bbc565b91505092915050565b600060208284031215611c4257611c41611865565b5b600082013567ffffffffffffffff811115611c6057611c5f61186a565b5b611c6c84828501611bfe565b91505092915050565b611c7e81611918565b82525050565b600081519050919050565b600082825260208201905092915050565b60005b83811015611cbe578082015181840152602081019050611ca3565b60008484015250505050565b6000611cd582611c84565b611cdf8185611c8f565b9350611cef818560208601611ca0565b611cf881611af0565b840191505092915050565b6000604082019050611d186000830185611c75565b8181036020830152611d2a8184611cca565b90509392505050565b600081519050919050565b600082825260208201905092915050565b6000819050602082019050919050565b60a082016000820151611d7560008501826118fa565b506020820151611d886020850182611909565b506040820151611d9b60408501826118fa565b506060820151611dae6060850182611924565b506080820151611dc16080850182611924565b50505050565b6000611dd38383611d5f565b60a08301905092915050565b6000602082019050919050565b6000611df782611d33565b611e018185611d3e565b9350611e0c83611d4f565b8060005b83811015611e3d578151611e248882611dc7565b9750611e2f83611ddf565b925050600181019050611e10565b5085935050505092915050565b60006020820190508181036000830152611e648184611dec565b905092915050565b7f4e487b7100000000000000000000000000000000000000000000000000000000600052603260045260246000fd5b600081905092915050565b50565b6000611eb6600083611e9b565b9150611ec182611ea6565b600082019050919050565b6000611ed782611ea9565b9150819050919050565b6000611eec826117c4565b91507fffffffffffffffffffffffffffffffffffffffffffffffffffffffffffffffff8203611f1e57611f1d6117ce565b5b600182019050919050565b6000611f34826117c4565b9150611f3f836117c4565b9250828203905081811115611f5757611f566117ce565b5b9291505056fea26469706673582212204e8b70735007cffa2308f48b54b284e9864320226cb56e6be7cd4039772fa0a164736f6c63430008110033",
  "devdoc": {
    "kind": "dev",
    "methods": {},
    "version": 1
  },
  "userdoc": {
    "kind": "user",
    "methods": {},
    "version": 1
  },
  "storageLayout": {
    "storage": [
      {
        "astId": 46,
        "contract": "contracts/Sacco.sol:Sacco",
        "label": "i_admin",
        "offset": 0,
        "slot": "0",
        "type": "t_address"
      },
      {
        "astId": 48,
        "contract": "contracts/Sacco.sol:Sacco",
        "label": "s_balances",
        "offset": 0,
        "slot": "1",
        "type": "t_uint256"
      },
      {
        "astId": 50,
        "contract": "contracts/Sacco.sol:Sacco",
        "label": "s_membersCount",
        "offset": 0,
        "slot": "2",
        "type": "t_uint256"
      },
      {
        "astId": 55,
        "contract": "contracts/Sacco.sol:Sacco",
        "label": "s_members",
        "offset": 0,
        "slot": "3",
        "type": "t_array(t_address_payable)dyn_storage"
      },
      {
        "astId": 59,
        "contract": "contracts/Sacco.sol:Sacco",
        "label": "s_memberBalance",
        "offset": 0,
        "slot": "4",
        "type": "t_mapping(t_address,t_uint256)"
      },
      {
        "astId": 63,
        "contract": "contracts/Sacco.sol:Sacco",
        "label": "s_memberNumber",
        "offset": 0,
        "slot": "5",
        "type": "t_mapping(t_address,t_uint256)"
      },
      {
        "astId": 65,
        "contract": "contracts/Sacco.sol:Sacco",
        "label": "s_num_gettingPaid",
        "offset": 0,
        "slot": "6",
        "type": "t_uint256"
      },
      {
        "astId": 67,
        "contract": "contracts/Sacco.sol:Sacco",
        "label": "s_lastTimeStamp",
        "offset": 0,
        "slot": "7",
        "type": "t_uint256"
      },
      {
        "astId": 100,
        "contract": "contracts/Sacco.sol:Sacco",
        "label": "s_memberList",
        "offset": 0,
        "slot": "8",
        "type": "t_array(t_struct(Member)96_storage)dyn_storage"
      },
      {
        "astId": 105,
        "contract": "contracts/Sacco.sol:Sacco",
        "label": "s_membersInfo",
        "offset": 0,
        "slot": "9",
        "type": "t_mapping(t_address,t_struct(Member)96_storage)"
      }
    ],
    "types": {
      "t_address": {
        "encoding": "inplace",
        "label": "address",
        "numberOfBytes": "20"
      },
      "t_address_payable": {
        "encoding": "inplace",
        "label": "address payable",
        "numberOfBytes": "20"
      },
      "t_array(t_address_payable)dyn_storage": {
        "base": "t_address_payable",
        "encoding": "dynamic_array",
        "label": "address payable[]",
        "numberOfBytes": "32"
      },
      "t_array(t_struct(Member)96_storage)dyn_storage": {
        "base": "t_struct(Member)96_storage",
        "encoding": "dynamic_array",
        "label": "struct Sacco.Member[]",
        "numberOfBytes": "32"
      },
      "t_bool": {
        "encoding": "inplace",
        "label": "bool",
        "numberOfBytes": "1"
      },
      "t_mapping(t_address,t_struct(Member)96_storage)": {
        "encoding": "mapping",
        "key": "t_address",
        "label": "mapping(address => struct Sacco.Member)",
        "numberOfBytes": "32",
        "value": "t_struct(Member)96_storage"
      },
      "t_mapping(t_address,t_uint256)": {
        "encoding": "mapping",
        "key": "t_address",
        "label": "mapping(address => uint256)",
        "numberOfBytes": "32",
        "value": "t_uint256"
      },
      "t_struct(Member)96_storage": {
        "encoding": "inplace",
        "label": "struct Sacco.Member",
        "members": [
          {
            "astId": 87,
            "contract": "contracts/Sacco.sol:Sacco",
            "label": "memberNumber",
            "offset": 0,
            "slot": "0",
            "type": "t_uint256"
          },
          {
            "astId": 89,
            "contract": "contracts/Sacco.sol:Sacco",
            "label": "memberAddress",
            "offset": 0,
            "slot": "1",
            "type": "t_address"
          },
          {
            "astId": 91,
            "contract": "contracts/Sacco.sol:Sacco",
            "label": "memberBalance",
            "offset": 0,
            "slot": "2",
            "type": "t_uint256"
          },
          {
            "astId": 93,
            "contract": "contracts/Sacco.sol:Sacco",
            "label": "getsPaidNext",
            "offset": 0,
            "slot": "3",
            "type": "t_bool"
          },
          {
            "astId": 95,
            "contract": "contracts/Sacco.sol:Sacco",
            "label": "hasContributed",
            "offset": 1,
            "slot": "3",
            "type": "t_bool"
          }
        ],
        "numberOfBytes": "128"
      },
      "t_uint256": {
        "encoding": "inplace",
        "label": "uint256",
        "numberOfBytes": "32"
      }
    }
  }
}